low information 2016/01/28 11:33:47:214724: FIXPump: Received data on connection {SIMULATOR_SESSION} [8=FIX.4.2|9=0167|35=D|49=SIMULATOR_SESSION|56=OMSEMS_SESSION|34=11|52=20160128-02:33:47|57=Simulator|40=2|21=2|38=5000|54=1|44=110.5|60=20160128-02:33:47:213|11=0_1453948427213|55=IBM|10=114|]
low information 2016/01/28 11:33:47:215044: FIXPump: Received data on connection {SIMULATOR_SESSION} [8=FIX.4.2|9=0168|35=D|49=SIMULATOR_SESSION|56=OMSEMS_SESSION|34=12|52=20160128-02:33:47|57=Simulator|40=2|21=2|38=5000|54=1|44=110.5|60=20160128-02:33:47:214|11=1_1453948427214|55=MSFT|10=217|]
low information 2016/01/28 11:33:47:215555: FIXPump: Received data on connection {SIMULATOR_SESSION} [8=FIX.4.2|9=0168|35=D|49=SIMULATOR_SESSION|56=OMSEMS_SESSION|34=13|52=20160128-02:33:47|57=Simulator|40=2|21=2|38=5000|54=1|44=110.5|60=20160128-02:33:47:214|11=2_1453948427214|55=NSCP|10=213|]
low information 2016/01/28 11:33:47:216020: FIXPump: Received data on connection {SIMULATOR_SESSION} [8=FIX.4.2|9=0167|35=D|49=SIMULATOR_SESSION|56=OMSEMS_SESSION|34=14|52=20160128-02:33:47|57=Simulator|40=2|21=2|38=5000|54=1|44=110.5|60=20160128-02:33:47:215|11=3_1453948427215|55=EMC|10=121|]
low information 2016/01/28 11:33:47:216513: FIXPump: Received data on connection {SIMULATOR_SESSION} [8=FIX.4.2|9=0168|35=D|49=SIMULATOR_SESSION|56=OMSEMS_SESSION|34=15|52=20160128-02:33:47|57=Simulator|40=2|21=2|38=5000|54=1|44=110.5|60=20160128-02:33:47:215|11=4_1453948427215|55=EBAY|10=200|]
low information 2016/01/28 11:33:47:218545: FIXPump: Received data on connection {SIMULATOR_SESSION} [8=FIX.4.2|9=0168|35=D|49=SIMULATOR_SESSION|56=OMSEMS_SESSION|34=16|52=20160128-02:33:47|57=Simulator|40=2|21=2|38=5000|54=1|44=110.5|60=20160128-02:33:47:216|11=5_1453948427216|55=YHOO|10=234|]
low information 2016/01/28 11:33:47:219305: FIXPump: Received data on connection {SIMULATOR_SESSION} [8=FIX.4.2|9=0168|35=D|49=SIMULATOR_SESSION|56=OMSEMS_SESSION|34=17|52=20160128-02:33:47|57=Simulator|40=2|21=2|38=5000|54=1|44=110.5|60=20160128-02:33:47:218|11=6_1453948427218|55=CSCO|10=217|]
low information 2016/01/28 11:33:47:219732: FIXPump: Received data on connection {SIMULATOR_SESSION} [8=FIX.4.2|9=0167|35=D|49=SIMULATOR_SESSION|56=OMSEMS_SESSION|34=18|52=20160128-02:33:47|57=Simulator|40=2|21=2|38=5000|54=1|44=110.5|60=20160128-02:33:47:218|11=7_1453948427218|55=AOL|10=142|]
low information 2016/01/28 11:33:47:220000: FIXConnectionData: Sending data on connection {SIMULATOR_SESSION} [8=FIX.4.2|9=0241|35=8|49=OMSEMS_SESSION|56=SIMULATOR_SESSION|34=11|52=20160128-02:33:47|37=64229796|17=64231804|11=0_1453948427213|55=IBM|54=1|44=0.0|38=10000.0|40=1|21=1|20=0|151=2000|14=8000|31=99.3125|32=1000|6=99.5625|39=1|150=1|60=20160125-11:33:47.216|10=170|]
low information 2016/01/28 11:33:47:220190: FIXConnectionData: Sending data on connection {SIMULATOR_SESSION} [8=FIX.4.2|9=0242|35=8|49=OMSEMS_SESSION|56=SIMULATOR_SESSION|34=12|52=20160128-02:33:47|37=64229796|17=64231804|11=1_1453948427214|55=MSFT|54=1|44=0.0|38=10000.0|40=1|21=1|20=0|151=2000|14=8000|31=99.3125|32=1000|6=99.5625|39=1|150=1|60=20160125-11:33:47.218|10=018|]
low information 2016/01/28 11:33:47:220197: FIXPump: Received data on connection {SIMULATOR_SESSION} [8=FIX.4.2|9=0166|35=D|49=SIMULATOR_SESSION|56=OMSEMS_SESSION|34=19|52=20160128-02:33:47|57=Simulator|40=2|21=2|38=5000|54=1|44=110.5|60=20160128-02:33:47:219|11=8_1453948427219|55=MO|10=081|]
low information 2016/01/28 11:33:47:220336: FIXConnectionData: Sending data on connection {SIMULATOR_SESSION} [8=FIX.4.2|9=0242|35=8|49=OMSEMS_SESSION|56=SIMULATOR_SESSION|34=13|52=20160128-02:33:47|37=64229796|17=64231804|11=2_1453948427214|55=NSCP|54=1|44=0.0|38=10000.0|40=1|21=1|20=0|151=2000|14=8000|31=99.3125|32=1000|6=99.5625|39=1|150=1|60=20160125-11:33:47.218|10=014|]
low information 2016/01/28 11:33:47:220440: FIXConnectionData: Sending data on connection {SIMULATOR_SESSION} [8=FIX.4.2|9=0241|35=8|49=OMSEMS_SESSION|56=SIMULATOR_SESSION|34=14|52=20160128-02:33:47|37=64229796|17=64231804|11=3_1453948427215|55=EMC|54=1|44=0.0|38=10000.0|40=1|21=1|20=0|151=2000|14=8000|31=99.3125|32=1000|6=99.5625|39=1|150=1|60=20160125-11:33:47.218|10=177|]
low information 2016/01/28 11:33:47:220491: FIXPump: Received data on connection {SIMULATOR_SESSION} [8=FIX.4.2|9=0165|35=D|49=SIMULATOR_SESSION|56=OMSEMS_SESSION|34=20|52=20160128-02:33:47|57=Simulator|40=2|21=2|38=5000|54=1|44=110.5|60=20160128-02:33:47:219|11=9_1453948427219|55=T|10=001|]
low information 2016/01/28 11:33:47:220540: FIXConnectionData: Sending data on connection {SIMULATOR_SESSION} [8=FIX.4.2|9=0242|35=8|49=OMSEMS_SESSION|56=SIMULATOR_SESSION|34=15|52=20160128-02:33:47|37=64229796|17=64231804|11=4_1453948427215|55=EBAY|54=1|44=0.0|38=10000.0|40=1|21=1|20=0|151=2000|14=8000|31=99.3125|32=1000|6=99.5625|39=1|150=1|60=20160125-11:33:47.218|10=000|]
low information 2016/01/28 11:33:47:220640: FIXConnectionData: Sending data on connection {SIMULATOR_SESSION} [8=FIX.4.2|9=0242|35=8|49=OMSEMS_SESSION|56=SIMULATOR_SESSION|34=16|52=20160128-02:33:47|37=64229796|17=64231804|11=5_1453948427216|55=YHOO|54=1|44=0.0|38=10000.0|40=1|21=1|20=0|151=2000|14=8000|31=99.3125|32=1000|6=99.5625|39=1|150=1|60=20160125-11:33:47.218|10=033|]
low information 2016/01/28 11:33:47:220739: FIXConnectionData: Sending data on connection {SIMULATOR_SESSION} [8=FIX.4.2|9=0242|35=8|49=OMSEMS_SESSION|56=SIMULATOR_SESSION|34=17|52=20160128-02:33:47|37=64229796|17=64231804|11=6_1453948427218|55=CSCO|54=1|44=0.0|38=10000.0|40=1|21=1|20=0|151=2000|14=8000|31=99.3125|32=1000|6=99.5625|39=1|150=1|60=20160125-11:33:47.219|10=015|]
low information 2016/01/28 11:33:47:220870: FIXConnectionData: Sending data on connection {SIMULATOR_SESSION} [8=FIX.4.2|9=0241|35=8|49=OMSEMS_SESSION|56=SIMULATOR_SESSION|34=18|52=20160128-02:33:47|37=64229796|17=64231804|11=7_1453948427218|55=AOL|54=1|44=0.0|38=10000.0|40=1|21=1|20=0|151=2000|14=8000|31=99.3125|32=1000|6=99.5625|39=1|150=1|60=20160125-11:33:47.219|10=196|]
low information 2016/01/28 11:33:47:220874: FIXPump: Received data on connection {SIMULATOR_SESSION} [8=FIX.4.2|9=0169|35=D|49=SIMULATOR_SESSION|56=OMSEMS_SESSION|34=21|52=20160128-02:33:47|57=Simulator|40=2|21=2|38=5000|54=1|44=110.5|60=20160128-02:33:47:220|11=10_1453948427220|55=INTL|10=001|]
low information 2016/01/28 11:33:47:221043: FIXConnectionData: Sending data on connection {SIMULATOR_SESSION} [8=FIX.4.2|9=0240|35=8|49=OMSEMS_SESSION|56=SIMULATOR_SESSION|34=19|52=20160128-02:33:47|37=64229796|17=64231804|11=8_1453948427219|55=MO|54=1|44=0.0|38=10000.0|40=1|21=1|20=0|151=2000|14=8000|31=99.3125|32=1000|6=99.5625|39=1|150=1|60=20160125-11:33:47.220|10=126|]
low information 2016/01/28 11:33:47:221165: FIXConnectionData: Sending data on connection {SIMULATOR_SESSION} [8=FIX.4.2|9=0239|35=8|49=OMSEMS_SESSION|56=SIMULATOR_SESSION|34=20|52=20160128-02:33:47|37=64229796|17=64231804|11=9_1453948427219|55=T|54=1|44=0.0|38=10000.0|40=1|21=1|20=0|151=2000|14=8000|31=99.3125|32=1000|6=99.5625|39=1|150=1|60=20160125-11:33:47.220|10=055|]
low information 2016/01/28 11:33:47:221302: FIXConnectionData: Sending data on connection {SIMULATOR_SESSION} [8=FIX.4.2|9=0243|35=8|49=OMSEMS_SESSION|56=SIMULATOR_SESSION|34=21|52=20160128-02:33:47|37=64229796|17=64231804|11=10_1453948427220|55=INTL|54=1|44=0.0|38=10000.0|40=1|21=1|20=0|151=2000|14=8000|31=99.3125|32=1000|6=99.5625|39=1|150=1|60=20160125-11:33:47.221|10=055|]
low information 2016/01/28 11:33:47:221316: FIXPump: Received data on connection {SIMULATOR_SESSION} [8=FIX.4.2|9=0169|35=D|49=SIMULATOR_SESSION|56=OMSEMS_SESSION|34=22|52=20160128-02:33:47|57=Simulator|40=2|21=2|38=5000|54=1|44=110.5|60=20160128-02:33:47:220|11=11_1453948427220|55=CELL|10=236|]
low information 2016/01/28 11:33:47:221603: FIXConnectionData: Sending data on connection {SIMULATOR_SESSION} [8=FIX.4.2|9=0243|35=8|49=OMSEMS_SESSION|56=SIMULATOR_SESSION|34=22|52=20160128-02:33:47|37=64229796|17=64231804|11=11_1453948427220|55=CELL|54=1|44=0.0|38=10000.0|40=1|21=1|20=0|151=2000|14=8000|31=99.3125|32=1000|6=99.5625|39=1|150=1|60=20160125-11:33:47.221|10=034|]
low information 2016/01/28 11:33:47:222507: FIXPump: Received data on connection {SIMULATOR_SESSION} [8=FIX.4.2|9=0169|35=D|49=SIMULATOR_SESSION|56=OMSEMS_SESSION|34=23|52=20160128-02:33:47|57=Simulator|40=2|21=2|38=5000|54=1|44=110.5|60=20160128-02:33:47:220|11=12_1453948427220|55=PPRT|10=020|]
low information 2016/01/28 11:33:47:222798: FIXConnectionData: Sending data on connection {SIMULATOR_SESSION} [8=FIX.4.2|9=0243|35=8|49=OMSEMS_SESSION|56=SIMULATOR_SESSION|34=23|52=20160128-02:33:47|37=64229796|17=64231804|11=12_1453948427220|55=PPRT|54=1|44=0.0|38=10000.0|40=1|21=1|20=0|151=2000|14=8000|31=99.3125|32=1000|6=99.5625|39=1|150=1|60=20160125-11:33:47.222|10=075|]
low information 2016/01/28 11:33:47:223225: FIXPump: Received data on connection {SIMULATOR_SESSION} [8=FIX.4.2|9=0169|35=D|49=SIMULATOR_SESSION|56=OMSEMS_SESSION|34=24|52=20160128-02:33:47|57=Simulator|40=2|21=2|38=5000|54=1|44=110.5|60=20160128-02:33:47:222|11=13_1453948427222|55=VISX|10=030|]
low information 2016/01/28 11:33:47:223549: FIXConnectionData: Sending data on connection {SIMULATOR_SESSION} [8=FIX.4.2|9=0243|35=8|49=OMSEMS_SESSION|56=SIMULATOR_SESSION|34=24|52=20160128-02:33:47|37=64229796|17=64231804|11=13_1453948427222|55=VISX|54=1|44=0.0|38=10000.0|40=1|21=1|20=0|151=2000|14=8000|31=99.3125|32=1000|6=99.5625|39=1|150=1|60=20160125-11:33:47.223|10=084|]
low information 2016/01/28 11:33:47:224233: FIXPump: Received data on connection {SIMULATOR_SESSION} [8=FIX.4.2|9=0167|35=D|49=SIMULATOR_SESSION|56=OMSEMS_SESSION|34=25|52=20160128-02:33:47|57=Simulator|40=2|21=2|38=5000|54=1|44=110.5|60=20160128-02:33:47:222|11=14_1453948427222|55=GE|10=096|]
low information 2016/01/28 11:33:47:224315: FIXPump: Received data on connection {SIMULATOR_SESSION} [8=FIX.4.2|9=0167|35=D|49=SIMULATOR_SESSION|56=OMSEMS_SESSION|34=26|52=20160128-02:33:47|57=Simulator|40=2|21=2|38=5000|54=1|44=110.5|60=20160128-02:33:47:223|11=15_1453948427223|55=GM|10=108|]
low information 2016/01/28 11:33:47:224542: FIXConnectionData: Sending data on connection {SIMULATOR_SESSION} [8=FIX.4.2|9=0241|35=8|49=OMSEMS_SESSION|56=SIMULATOR_SESSION|34=25|52=20160128-02:33:47|37=64229796|17=64231804|11=14_1453948427222|55=GE|54=1|44=0.0|38=10000.0|40=1|21=1|20=0|151=2000|14=8000|31=99.3125|32=1000|6=99.5625|39=1|150=1|60=20160125-11:33:47.224|10=151|]
low information 2016/01/28 11:33:47:224683: FIXConnectionData: Sending data on connection {SIMULATOR_SESSION} [8=FIX.4.2|9=0241|35=8|49=OMSEMS_SESSION|56=SIMULATOR_SESSION|34=26|52=20160128-02:33:47|37=64229796|17=64231804|11=15_1453948427223|55=GM|54=1|44=0.0|38=10000.0|40=1|21=1|20=0|151=2000|14=8000|31=99.3125|32=1000|6=99.5625|39=1|150=1|60=20160125-11:33:47.224|10=162|]
low information 2016/01/28 11:33:47:224970: FIXPump: Received data on connection {SIMULATOR_SESSION} [8=FIX.4.2|9=0168|35=D|49=SIMULATOR_SESSION|56=OMSEMS_SESSION|34=27|52=20160128-02:33:47|57=Simulator|40=2|21=2|38=5000|54=1|44=110.5|60=20160128-02:33:47:224|11=16_1453948427224|55=GTE|10=189|]
low information 2016/01/28 11:33:47:225281: FIXConnectionData: Sending data on connection {SIMULATOR_SESSION} [8=FIX.4.2|9=0242|35=8|49=OMSEMS_SESSION|56=SIMULATOR_SESSION|34=27|52=20160128-02:33:47|37=64229796|17=64231804|11=16_1453948427224|55=GTE|54=1|44=0.0|38=10000.0|40=1|21=1|20=0|151=2000|14=8000|31=99.3125|32=1000|6=99.5625|39=1|150=1|60=20160125-11:33:47.225|10=243|]
low information 2016/01/28 11:33:47:227503: FIXPump: Received data on connection {SIMULATOR_SESSION} [8=FIX.4.2|9=0167|35=D|49=SIMULATOR_SESSION|56=OMSEMS_SESSION|34=28|52=20160128-02:33:47|57=Simulator|40=2|21=2|38=5000|54=1|44=110.5|60=20160128-02:33:47:225|11=17_1453948427225|55=HP|10=120|]
low information 2016/01/28 11:33:47:227543: FIXPump: Received data on connection {SIMULATOR_SESSION} [8=FIX.4.2|9=0169|35=D|49=SIMULATOR_SESSION|56=OMSEMS_SESSION|34=29|52=20160128-02:33:47|57=Simulator|40=2|21=2|38=5000|54=1|44=110.5|60=20160128-02:33:47:225|11=18_1453948427225|55=DELL|10=005|]
low information 2016/01/28 11:33:47:227570: FIXPump: Received data on connection {SIMULATOR_SESSION} [8=FIX.4.2|9=0169|35=D|49=SIMULATOR_SESSION|56=OMSEMS_SESSION|34=30|52=20160128-02:33:47|57=Simulator|40=2|21=2|38=5000|54=1|44=110.5|60=20160128-02:33:47:226|11=19_1453948427226|55=SUNW|10=044|]
low information 2016/01/28 11:33:47:228004: FIXConnectionData: Sending data on connection {SIMULATOR_SESSION} [8=FIX.4.2|9=0241|35=8|49=OMSEMS_SESSION|56=SIMULATOR_SESSION|34=28|52=20160128-02:33:47|37=64229796|17=64231804|11=17_1453948427225|55=HP|54=1|44=0.0|38=10000.0|40=1|21=1|20=0|151=2000|14=8000|31=99.3125|32=1000|6=99.5625|39=1|150=1|60=20160125-11:33:47.227|10=175|]
low information 2016/01/28 11:33:47:228155: FIXConnectionData: Sending data on connection {SIMULATOR_SESSION} [8=FIX.4.2|9=0243|35=8|49=OMSEMS_SESSION|56=SIMULATOR_SESSION|34=29|52=20160128-02:33:47|37=64229796|17=64231804|11=18_1453948427225|55=DELL|54=1|44=0.0|38=10000.0|40=1|21=1|20=0|151=2000|14=8000|31=99.3125|32=1000|6=99.5625|39=1|150=1|60=20160125-11:33:47.227|10=060|]
low information 2016/01/28 11:33:47:228250: FIXConnectionData: Sending data on connection {SIMULATOR_SESSION} [8=FIX.4.2|9=0243|35=8|49=OMSEMS_SESSION|56=SIMULATOR_SESSION|34=30|52=20160128-02:33:47|37=64229796|17=64231804|11=19_1453948427226|55=SUNW|54=1|44=0.0|38=10000.0|40=1|21=1|20=0|151=2000|14=8000|31=99.3125|32=1000|6=99.5625|39=1|150=1|60=20160125-11:33:47.227|10=098|]
low information 2016/01/28 11:33:47:229471: FIXPump: Received data on connection {SIMULATOR_SESSION} [8=FIX.4.2|9=0168|35=D|49=SIMULATOR_SESSION|56=OMSEMS_SESSION|34=31|52=20160128-02:33:47|57=Simulator|40=2|21=2|38=5000|54=1|44=110.5|60=20160128-02:33:47:226|11=20_1453948427226|55=IBM|10=175|]
low information 2016/01/28 11:33:47:229636: FIXPump: Received data on connection {SIMULATOR_SESSION} [8=FIX.4.2|9=0169|35=D|49=SIMULATOR_SESSION|56=OMSEMS_SESSION|34=32|52=20160128-02:33:47|57=Simulator|40=2|21=2|38=5000|54=1|44=110.5|60=20160128-02:33:47:228|11=21_1453948427228|55=MSFT|10=024|]
low information 2016/01/28 11:33:47:229747: FIXPump: Received data on connection {SIMULATOR_SESSION} [8=FIX.4.2|9=0169|35=D|49=SIMULATOR_SESSION|56=OMSEMS_SESSION|34=33|52=20160128-02:33:47|57=Simulator|40=2|21=2|38=5000|54=1|44=110.5|60=20160128-02:33:47:228|11=22_1453948427228|55=NSCP|10=020|]
low information 2016/01/28 11:33:47:229830: FIXConnectionData: Sending data on connection {SIMULATOR_SESSION} [8=FIX.4.2|9=0242|35=8|49=OMSEMS_SESSION|56=SIMULATOR_SESSION|34=31|52=20160128-02:33:47|37=64229796|17=64231804|11=20_1453948427226|55=IBM|54=1|44=0.0|38=10000.0|40=1|21=1|20=0|151=2000|14=8000|31=99.3125|32=1000|6=99.5625|39=1|150=1|60=20160125-11:33:47.229|10=231|]
low information 2016/01/28 11:33:47:229857: FIXPump: Received data on connection {SIMULATOR_SESSION} [8=FIX.4.2|9=0168|35=D|49=SIMULATOR_SESSION|56=OMSEMS_SESSION|34=34|52=20160128-02:33:47|57=Simulator|40=2|21=2|38=5000|54=1|44=110.5|60=20160128-02:33:47:228|11=23_1453948427228|55=EMC|10=182|]
low information 2016/01/28 11:33:47:229935: FIXConnectionData: Sending data on connection {SIMULATOR_SESSION} [8=FIX.4.2|9=0243|35=8|49=OMSEMS_SESSION|56=SIMULATOR_SESSION|34=32|52=20160128-02:33:47|37=64229796|17=64231804|11=21_1453948427228|55=MSFT|54=1|44=0.0|38=10000.0|40=1|21=1|20=0|151=2000|14=8000|31=99.3125|32=1000|6=99.5625|39=1|150=1|60=20160125-11:33:47.229|10=078|]
low information 2016/01/28 11:33:47:230095: FIXPump: Received data on connection {SIMULATOR_SESSION} [8=FIX.4.2|9=0169|35=D|49=SIMULATOR_SESSION|56=OMSEMS_SESSION|34=35|52=20160128-02:33:47|57=Simulator|40=2|21=2|38=5000|54=1|44=110.5|60=20160128-02:33:47:229|11=24_1453948427229|55=EBAY|10=007|]
low information 2016/01/28 11:33:47:230205: FIXConnectionData: Sending data on connection {SIMULATOR_SESSION} [8=FIX.4.2|9=0243|35=8|49=OMSEMS_SESSION|56=SIMULATOR_SESSION|34=33|52=20160128-02:33:47|37=64229796|17=64231804|11=22_1453948427228|55=NSCP|54=1|44=0.0|38=10000.0|40=1|21=1|20=0|151=2000|14=8000|31=99.3125|32=1000|6=99.5625|39=1|150=1|60=20160125-11:33:47.229|10=074|]
low information 2016/01/28 11:33:47:230217: FIXPump: Received data on connection {SIMULATOR_SESSION} [8=FIX.4.2|9=0169|35=D|49=SIMULATOR_SESSION|56=OMSEMS_SESSION|34=36|52=20160128-02:33:47|57=Simulator|40=2|21=2|38=5000|54=1|44=110.5|60=20160128-02:33:47:229|11=25_1453948427229|55=YHOO|10=039|]
low information 2016/01/28 11:33:47:230315: FIXConnectionData: Sending data on connection {SIMULATOR_SESSION} [8=FIX.4.2|9=0242|35=8|49=OMSEMS_SESSION|56=SIMULATOR_SESSION|34=34|52=20160128-02:33:47|37=64229796|17=64231804|11=23_1453948427228|55=EMC|54=1|44=0.0|38=10000.0|40=1|21=1|20=0|151=2000|14=8000|31=99.3125|32=1000|6=99.5625|39=1|150=1|60=20160125-11:33:47.230|10=228|]
low information 2016/01/28 11:33:47:230447: FIXConnectionData: Sending data on connection {SIMULATOR_SESSION} [8=FIX.4.2|9=0243|35=8|49=OMSEMS_SESSION|56=SIMULATOR_SESSION|34=35|52=20160128-02:33:47|37=64229796|17=64231804|11=24_1453948427229|55=EBAY|54=1|44=0.0|38=10000.0|40=1|21=1|20=0|151=2000|14=8000|31=99.3125|32=1000|6=99.5625|39=1|150=1|60=20160125-11:33:47.230|10=052|]
low information 2016/01/28 11:33:47:230498: FIXPump: Received data on connection {SIMULATOR_SESSION} [8=FIX.4.2|9=0169|35=D|49=SIMULATOR_SESSION|56=OMSEMS_SESSION|34=37|52=20160128-02:33:47|57=Simulator|40=2|21=2|38=5000|54=1|44=110.5|60=20160128-02:33:47:229|11=26_1453948427229|55=CSCO|10=018|]
low information 2016/01/28 11:33:47:230570: FIXConnectionData: Sending data on connection {SIMULATOR_SESSION} [8=FIX.4.2|9=0243|35=8|49=OMSEMS_SESSION|56=SIMULATOR_SESSION|34=36|52=20160128-02:33:47|37=64229796|17=64231804|11=25_1453948427229|55=YHOO|54=1|44=0.0|38=10000.0|40=1|21=1|20=0|151=2000|14=8000|31=99.3125|32=1000|6=99.5625|39=1|150=1|60=20160125-11:33:47.230|10=084|]
low information 2016/01/28 11:33:47:230783: FIXConnectionData: Sending data on connection {SIMULATOR_SESSION} [8=FIX.4.2|9=0243|35=8|49=OMSEMS_SESSION|56=SIMULATOR_SESSION|34=37|52=20160128-02:33:47|37=64229796|17=64231804|11=26_1453948427229|55=CSCO|54=1|44=0.0|38=10000.0|40=1|21=1|20=0|151=2000|14=8000|31=99.3125|32=1000|6=99.5625|39=1|150=1|60=20160125-11:33:47.230|10=063|]
low information 2016/01/28 11:33:47:230814: FIXPump: Received data on connection {SIMULATOR_SESSION} [8=FIX.4.2|9=0168|35=D|49=SIMULATOR_SESSION|56=OMSEMS_SESSION|34=38|52=20160128-02:33:47|57=Simulator|40=2|21=2|38=5000|54=1|44=110.5|60=20160128-02:33:47:230|11=27_1453948427230|55=AOL|10=183|]
low information 2016/01/28 11:33:47:231106: FIXConnectionData: Sending data on connection {SIMULATOR_SESSION} [8=FIX.4.2|9=0242|35=8|49=OMSEMS_SESSION|56=SIMULATOR_SESSION|34=38|52=20160128-02:33:47|37=64229796|17=64231804|11=27_1453948427230|55=AOL|54=1|44=0.0|38=10000.0|40=1|21=1|20=0|151=2000|14=8000|31=99.3125|32=1000|6=99.5625|39=1|150=1|60=20160125-11:33:47.230|10=236|]
low information 2016/01/28 11:33:47:231186: FIXPump: Received data on connection {SIMULATOR_SESSION} [8=FIX.4.2|9=0167|35=D|49=SIMULATOR_SESSION|56=OMSEMS_SESSION|34=39|52=20160128-02:33:47|57=Simulator|40=2|21=2|38=5000|54=1|44=110.5|60=20160128-02:33:47:230|11=28_1453948427230|55=MO|10=120|]
low information 2016/01/28 11:33:47:231351: FIXPump: Received data on connection {SIMULATOR_SESSION} [8=FIX.4.2|9=0166|35=D|49=SIMULATOR_SESSION|56=OMSEMS_SESSION|34=40|52=20160128-02:33:47|57=Simulator|40=2|21=2|38=5000|54=1|44=110.5|60=20160128-02:33:47:230|11=29_1453948427230|55=T|10=040|]
low information 2016/01/28 11:33:47:231539: FIXConnectionData: Sending data on connection {SIMULATOR_SESSION} [8=FIX.4.2|9=0241|35=8|49=OMSEMS_SESSION|56=SIMULATOR_SESSION|34=39|52=20160128-02:33:47|37=64229796|17=64231804|11=28_1453948427230|55=MO|54=1|44=0.0|38=10000.0|40=1|21=1|20=0|151=2000|14=8000|31=99.3125|32=1000|6=99.5625|39=1|150=1|60=20160125-11:33:47.231|10=174|]
low information 2016/01/28 11:33:47:231649: FIXPump: Received data on connection {SIMULATOR_SESSION} [8=FIX.4.2|9=0169|35=D|49=SIMULATOR_SESSION|56=OMSEMS_SESSION|34=41|52=20160128-02:33:47|57=Simulator|40=2|21=2|38=5000|54=1|44=110.5|60=20160128-02:33:47:230|11=30_1453948427230|55=INTL|10=007|]
low information 2016/01/28 11:33:47:231678: FIXConnectionData: Sending data on connection {SIMULATOR_SESSION} [8=FIX.4.2|9=0240|35=8|49=OMSEMS_SESSION|56=SIMULATOR_SESSION|34=40|52=20160128-02:33:47|37=64229796|17=64231804|11=29_1453948427230|55=T|54=1|44=0.0|38=10000.0|40=1|21=1|20=0|151=2000|14=8000|31=99.3125|32=1000|6=99.5625|39=1|150=1|60=20160125-11:33:47.231|10=094|]
low information 2016/01/28 11:33:47:231938: FIXConnectionData: Sending data on connection {SIMULATOR_SESSION} [8=FIX.4.2|9=0243|35=8|49=OMSEMS_SESSION|56=SIMULATOR_SESSION|34=41|52=20160128-02:33:47|37=64229796|17=64231804|11=30_1453948427230|55=INTL|54=1|44=0.0|38=10000.0|40=1|21=1|20=0|151=2000|14=8000|31=99.3125|32=1000|6=99.5625|39=1|150=1|60=20160125-11:33:47.231|10=061|]
low information 2016/01/28 11:33:47:231950: FIXPump: Received data on connection {SIMULATOR_SESSION} [8=FIX.4.2|9=0169|35=D|49=SIMULATOR_SESSION|56=OMSEMS_SESSION|34=42|52=20160128-02:33:47|57=Simulator|40=2|21=2|38=5000|54=1|44=110.5|60=20160128-02:33:47:231|11=31_1453948427231|55=CELL|10=244|]
low information 2016/01/28 11:33:47:232233: FIXPump: Received data on connection {SIMULATOR_SESSION} [8=FIX.4.2|9=0169|35=D|49=SIMULATOR_SESSION|56=OMSEMS_SESSION|34=43|52=20160128-02:33:47|57=Simulator|40=2|21=2|38=5000|54=1|44=110.5|60=20160128-02:33:47:231|11=32_1453948427231|55=PPRT|10=028|]
low information 2016/01/28 11:33:47:232250: FIXConnectionData: Sending data on connection {SIMULATOR_SESSION} [8=FIX.4.2|9=0243|35=8|49=OMSEMS_SESSION|56=SIMULATOR_SESSION|34=42|52=20160128-02:33:47|37=64229796|17=64231804|11=31_1453948427231|55=CELL|54=1|44=0.0|38=10000.0|40=1|21=1|20=0|151=2000|14=8000|31=99.3125|32=1000|6=99.5625|39=1|150=1|60=20160125-11:33:47.232|10=042|]
low information 2016/01/28 11:33:47:232640: FIXConnectionData: Sending data on connection {SIMULATOR_SESSION} [8=FIX.4.2|9=0243|35=8|49=OMSEMS_SESSION|56=SIMULATOR_SESSION|34=43|52=20160128-02:33:47|37=64229796|17=64231804|11=32_1453948427231|55=PPRT|54=1|44=0.0|38=10000.0|40=1|21=1|20=0|151=2000|14=8000|31=99.3125|32=1000|6=99.5625|39=1|150=1|60=20160125-11:33:47.232|10=082|]
low information 2016/01/28 11:33:47:237733: FIXPump: Received data on connection {SIMULATOR_SESSION} [8=FIX.4.2|9=0169|35=D|49=SIMULATOR_SESSION|56=OMSEMS_SESSION|34=44|52=20160128-02:33:47|57=Simulator|40=2|21=2|38=5000|54=1|44=110.5|60=20160128-02:33:47:236|11=33_1453948427237|55=VISX|10=045|]
low information 2016/01/28 11:33:47:238114: FIXConnectionData: Sending data on connection {SIMULATOR_SESSION} [8=FIX.4.2|9=0243|35=8|49=OMSEMS_SESSION|56=SIMULATOR_SESSION|34=44|52=20160128-02:33:47|37=64229796|17=64231804|11=33_1453948427237|55=VISX|54=1|44=0.0|38=10000.0|40=1|21=1|20=0|151=2000|14=8000|31=99.3125|32=1000|6=99.5625|39=1|150=1|60=20160125-11:33:47.237|10=099|]
low information 2016/01/28 11:33:47:238168: FIXPump: Received data on connection {SIMULATOR_SESSION} [8=FIX.4.2|9=0167|35=D|49=SIMULATOR_SESSION|56=OMSEMS_SESSION|34=45|52=20160128-02:33:47|57=Simulator|40=2|21=2|38=5000|54=1|44=110.5|60=20160128-02:33:47:237|11=34_1453948427237|55=GE|10=112|]
low information 2016/01/28 11:33:47:238531: FIXConnectionData: Sending data on connection {SIMULATOR_SESSION} [8=FIX.4.2|9=0241|35=8|49=OMSEMS_SESSION|56=SIMULATOR_SESSION|34=45|52=20160128-02:33:47|37=64229796|17=64231804|11=34_1453948427237|55=GE|54=1|44=0.0|38=10000.0|40=1|21=1|20=0|151=2000|14=8000|31=99.3125|32=1000|6=99.5625|39=1|150=1|60=20160125-11:33:47.238|10=166|]
low information 2016/01/28 11:33:47:238536: FIXPump: Received data on connection {SIMULATOR_SESSION} [8=FIX.4.2|9=0167|35=D|49=SIMULATOR_SESSION|56=OMSEMS_SESSION|34=46|52=20160128-02:33:47|57=Simulator|40=2|21=2|38=5000|54=1|44=110.5|60=20160128-02:33:47:237|11=35_1453948427237|55=GM|10=122|]
low information 2016/01/28 11:33:47:238855: FIXConnectionData: Sending data on connection {SIMULATOR_SESSION} [8=FIX.4.2|9=0241|35=8|49=OMSEMS_SESSION|56=SIMULATOR_SESSION|34=46|52=20160128-02:33:47|37=64229796|17=64231804|11=35_1453948427237|55=GM|54=1|44=0.0|38=10000.0|40=1|21=1|20=0|151=2000|14=8000|31=99.3125|32=1000|6=99.5625|39=1|150=1|60=20160125-11:33:47.238|10=176|]
low information 2016/01/28 11:33:47:238928: FIXPump: Received data on connection {SIMULATOR_SESSION} [8=FIX.4.2|9=0168|35=D|49=SIMULATOR_SESSION|56=OMSEMS_SESSION|34=47|52=20160128-02:33:47|57=Simulator|40=2|21=2|38=5000|54=1|44=110.5|60=20160128-02:33:47:238|11=36_1453948427238|55=GTE|10=203|]
low information 2016/01/28 11:33:47:239256: FIXConnectionData: Sending data on connection {SIMULATOR_SESSION} [8=FIX.4.2|9=0242|35=8|49=OMSEMS_SESSION|56=SIMULATOR_SESSION|34=47|52=20160128-02:33:47|37=64229796|17=64231804|11=36_1453948427238|55=GTE|54=1|44=0.0|38=10000.0|40=1|21=1|20=0|151=2000|14=8000|31=99.3125|32=1000|6=99.5625|39=1|150=1|60=20160125-11:33:47.239|10=001|]
low information 2016/01/28 11:33:47:239281: FIXPump: Received data on connection {SIMULATOR_SESSION} [8=FIX.4.2|9=0167|35=D|49=SIMULATOR_SESSION|56=OMSEMS_SESSION|34=48|52=20160128-02:33:47|57=Simulator|40=2|21=2|38=5000|54=1|44=110.5|60=20160128-02:33:47:238|11=37_1453948427238|55=HP|10=132|]
low information 2016/01/28 11:33:47:239593: FIXConnectionData: Sending data on connection {SIMULATOR_SESSION} [8=FIX.4.2|9=0241|35=8|49=OMSEMS_SESSION|56=SIMULATOR_SESSION|34=48|52=20160128-02:33:47|37=64229796|17=64231804|11=37_1453948427238|55=HP|54=1|44=0.0|38=10000.0|40=1|21=1|20=0|151=2000|14=8000|31=99.3125|32=1000|6=99.5625|39=1|150=1|60=20160125-11:33:47.239|10=186|]
low information 2016/01/28 11:33:47:243266: FIXPump: Received data on connection {SIMULATOR_SESSION} [8=FIX.4.2|9=0169|35=D|49=SIMULATOR_SESSION|56=OMSEMS_SESSION|34=49|52=20160128-02:33:47|57=Simulator|40=2|21=2|38=5000|54=1|44=110.5|60=20160128-02:33:47:242|11=38_1453948427242|55=DELL|10=007|]
low information 2016/01/28 11:33:47:243578: FIXPump: Received data on connection {SIMULATOR_SESSION} [8=FIX.4.2|9=0169|35=D|49=SIMULATOR_SESSION|56=OMSEMS_SESSION|34=50|52=20160128-02:33:47|57=Simulator|40=2|21=2|38=5000|54=1|44=110.5|60=20160128-02:33:47:242|11=39_1453948427242|55=SUNW|10=044|]
low information 2016/01/28 11:33:47:243821: FIXConnectionData: Sending data on connection {SIMULATOR_SESSION} [8=FIX.4.2|9=0243|35=8|49=OMSEMS_SESSION|56=SIMULATOR_SESSION|34=49|52=20160128-02:33:47|37=64229796|17=64231804|11=38_1453948427242|55=DELL|54=1|44=0.0|38=10000.0|40=1|21=1|20=0|151=2000|14=8000|31=99.3125|32=1000|6=99.5625|39=1|150=1|60=20160125-11:33:47.243|10=061|]
low information 2016/01/28 11:33:47:243968: FIXConnectionData: Sending data on connection {SIMULATOR_SESSION} [8=FIX.4.2|9=0243|35=8|49=OMSEMS_SESSION|56=SIMULATOR_SESSION|34=50|52=20160128-02:33:47|37=64229796|17=64231804|11=39_1453948427242|55=SUNW|54=1|44=0.0|38=10000.0|40=1|21=1|20=0|151=2000|14=8000|31=99.3125|32=1000|6=99.5625|39=1|150=1|60=20160125-11:33:47.243|10=098|]
low information 2016/01/28 11:33:47:248560: FIXPump: Received data on connection {SIMULATOR_SESSION} [8=FIX.4.2|9=0168|35=D|49=SIMULATOR_SESSION|56=OMSEMS_SESSION|34=51|52=20160128-02:33:47|57=Simulator|40=2|21=2|38=5000|54=1|44=110.5|60=20160128-02:33:47:244|11=40_1453948427244|55=IBM|10=179|]
low information 2016/01/28 11:33:47:248836: FIXPump: Received data on connection {SIMULATOR_SESSION} [8=FIX.4.2|9=0169|35=D|49=SIMULATOR_SESSION|56=OMSEMS_SESSION|34=52|52=20160128-02:33:47|57=Simulator|40=2|21=2|38=5000|54=1|44=110.5|60=20160128-02:33:47:248|11=41_1453948427248|55=MSFT|10=032|]
low information 2016/01/28 11:33:47:248850: FIXConnectionData: Sending data on connection {SIMULATOR_SESSION} [8=FIX.4.2|9=0242|35=8|49=OMSEMS_SESSION|56=SIMULATOR_SESSION|34=51|52=20160128-02:33:47|37=64229796|17=64231804|11=40_1453948427244|55=IBM|54=1|44=0.0|38=10000.0|40=1|21=1|20=0|151=2000|14=8000|31=99.3125|32=1000|6=99.5625|39=1|150=1|60=20160125-11:33:47.248|10=236|]
low information 2016/01/28 11:33:47:249111: FIXPump: Received data on connection {SIMULATOR_SESSION} [8=FIX.4.2|9=0169|35=D|49=SIMULATOR_SESSION|56=OMSEMS_SESSION|34=53|52=20160128-02:33:47|57=Simulator|40=2|21=2|38=5000|54=1|44=110.5|60=20160128-02:33:47:248|11=42_1453948427248|55=NSCP|10=028|]
low information 2016/01/28 11:33:47:249128: FIXConnectionData: Sending data on connection {SIMULATOR_SESSION} [8=FIX.4.2|9=0243|35=8|49=OMSEMS_SESSION|56=SIMULATOR_SESSION|34=52|52=20160128-02:33:47|37=64229796|17=64231804|11=41_1453948427248|55=MSFT|54=1|44=0.0|38=10000.0|40=1|21=1|20=0|151=2000|14=8000|31=99.3125|32=1000|6=99.5625|39=1|150=1|60=20160125-11:33:47.248|10=085|]
low information 2016/01/28 11:33:47:249349: FIXConnectionData: Sending data on connection {SIMULATOR_SESSION} [8=FIX.4.2|9=0243|35=8|49=OMSEMS_SESSION|56=SIMULATOR_SESSION|34=53|52=20160128-02:33:47|37=64229796|17=64231804|11=42_1453948427248|55=NSCP|54=1|44=0.0|38=10000.0|40=1|21=1|20=0|151=2000|14=8000|31=99.3125|32=1000|6=99.5625|39=1|150=1|60=20160125-11:33:47.249|10=082|]
low information 2016/01/28 11:33:47:252608: FIXPump: Received data on connection {SIMULATOR_SESSION} [8=FIX.4.2|9=0168|35=D|49=SIMULATOR_SESSION|56=OMSEMS_SESSION|34=54|52=20160128-02:33:47|57=Simulator|40=2|21=2|38=5000|54=1|44=110.5|60=20160128-02:33:47:251|11=43_1453948427251|55=EMC|10=178|]
low information 2016/01/28 11:33:47:252852: FIXPump: Received data on connection {SIMULATOR_SESSION} [8=FIX.4.2|9=0169|35=D|49=SIMULATOR_SESSION|56=OMSEMS_SESSION|34=55|52=20160128-02:33:47|57=Simulator|40=2|21=2|38=5000|54=1|44=110.5|60=20160128-02:33:47:252|11=44_1453948427252|55=EBAY|10=003|]
low information 2016/01/28 11:33:47:252919: FIXConnectionData: Sending data on connection {SIMULATOR_SESSION} [8=FIX.4.2|9=0242|35=8|49=OMSEMS_SESSION|56=SIMULATOR_SESSION|34=54|52=20160128-02:33:47|37=64229796|17=64231804|11=43_1453948427251|55=EMC|54=1|44=0.0|38=10000.0|40=1|21=1|20=0|151=2000|14=8000|31=99.3125|32=1000|6=99.5625|39=1|150=1|60=20160125-11:33:47.252|10=232|]
low information 2016/01/28 11:33:47:253161: FIXConnectionData: Sending data on connection {SIMULATOR_SESSION} [8=FIX.4.2|9=0243|35=8|49=OMSEMS_SESSION|56=SIMULATOR_SESSION|34=55|52=20160128-02:33:47|37=64229796|17=64231804|11=44_1453948427252|55=EBAY|54=1|44=0.0|38=10000.0|40=1|21=1|20=0|151=2000|14=8000|31=99.3125|32=1000|6=99.5625|39=1|150=1|60=20160125-11:33:47.252|10=056|]
low information 2016/01/28 11:33:47:253198: FIXPump: Received data on connection {SIMULATOR_SESSION} [8=FIX.4.2|9=0169|35=D|49=SIMULATOR_SESSION|56=OMSEMS_SESSION|34=56|52=20160128-02:33:47|57=Simulator|40=2|21=2|38=5000|54=1|44=110.5|60=20160128-02:33:47:252|11=45_1453948427252|55=YHOO|10=035|]
low information 2016/01/28 11:33:47:253320: FIXPump: Received data on connection {SIMULATOR_SESSION} [8=FIX.4.2|9=0169|35=D|49=SIMULATOR_SESSION|56=OMSEMS_SESSION|34=57|52=20160128-02:33:47|57=Simulator|40=2|21=2|38=5000|54=1|44=110.5|60=20160128-02:33:47:252|11=46_1453948427252|55=CSCO|10=014|]
low information 2016/01/28 11:33:47:253459: FIXConnectionData: Sending data on connection {SIMULATOR_SESSION} [8=FIX.4.2|9=0243|35=8|49=OMSEMS_SESSION|56=SIMULATOR_SESSION|34=56|52=20160128-02:33:47|37=64229796|17=64231804|11=45_1453948427252|55=YHOO|54=1|44=0.0|38=10000.0|40=1|21=1|20=0|151=2000|14=8000|31=99.3125|32=1000|6=99.5625|39=1|150=1|60=20160125-11:33:47.253|10=089|]
low information 2016/01/28 11:33:47:253542: FIXPump: Received data on connection {SIMULATOR_SESSION} [8=FIX.4.2|9=0168|35=D|49=SIMULATOR_SESSION|56=OMSEMS_SESSION|34=58|52=20160128-02:33:47|57=Simulator|40=2|21=2|38=5000|54=1|44=110.5|60=20160128-02:33:47:252|11=47_1453948427252|55=AOL|10=195|]
low information 2016/01/28 11:33:47:253596: FIXConnectionData: Sending data on connection {SIMULATOR_SESSION} [8=FIX.4.2|9=0243|35=8|49=OMSEMS_SESSION|56=SIMULATOR_SESSION|34=57|52=20160128-02:33:47|37=64229796|17=64231804|11=46_1453948427252|55=CSCO|54=1|44=0.0|38=10000.0|40=1|21=1|20=0|151=2000|14=8000|31=99.3125|32=1000|6=99.5625|39=1|150=1|60=20160125-11:33:47.253|10=068|]
low information 2016/01/28 11:33:47:253886: FIXConnectionData: Sending data on connection {SIMULATOR_SESSION} [8=FIX.4.2|9=0242|35=8|49=OMSEMS_SESSION|56=SIMULATOR_SESSION|34=58|52=20160128-02:33:47|37=64229796|17=64231804|11=47_1453948427252|55=AOL|54=1|44=0.0|38=10000.0|40=1|21=1|20=0|151=2000|14=8000|31=99.3125|32=1000|6=99.5625|39=1|150=1|60=20160125-11:33:47.253|10=249|]
low information 2016/01/28 11:33:47:255210: FIXPump: Received data on connection {SIMULATOR_SESSION} [8=FIX.4.2|9=0167|35=D|49=SIMULATOR_SESSION|56=OMSEMS_SESSION|34=59|52=20160128-02:33:47|57=Simulator|40=2|21=2|38=5000|54=1|44=110.5|60=20160128-02:33:47:254|11=48_1453948427254|55=MO|10=136|]
low information 2016/01/28 11:33:47:255500: FIXConnectionData: Sending data on connection {SIMULATOR_SESSION} [8=FIX.4.2|9=0241|35=8|49=OMSEMS_SESSION|56=SIMULATOR_SESSION|34=59|52=20160128-02:33:47|37=64229796|17=64231804|11=48_1453948427254|55=MO|54=1|44=0.0|38=10000.0|40=1|21=1|20=0|151=2000|14=8000|31=99.3125|32=1000|6=99.5625|39=1|150=1|60=20160125-11:33:47.255|10=190|]
low information 2016/01/28 11:33:47:255537: FIXPump: Received data on connection {SIMULATOR_SESSION} [8=FIX.4.2|9=0166|35=D|49=SIMULATOR_SESSION|56=OMSEMS_SESSION|34=60|52=20160128-02:33:47|57=Simulator|40=2|21=2|38=5000|54=1|44=110.5|60=20160128-02:33:47:254|11=49_1453948427254|55=T|10=056|]
low information 2016/01/28 11:33:47:255831: FIXPump: Received data on connection {SIMULATOR_SESSION} [8=FIX.4.2|9=0169|35=D|49=SIMULATOR_SESSION|56=OMSEMS_SESSION|34=61|52=20160128-02:33:47|57=Simulator|40=2|21=2|38=5000|54=1|44=110.5|60=20160128-02:33:47:255|11=50_1453948427255|55=INTL|10=025|]
low information 2016/01/28 11:33:47:256101: FIXConnectionData: Sending data on connection {SIMULATOR_SESSION} [8=FIX.4.2|9=0240|35=8|49=OMSEMS_SESSION|56=SIMULATOR_SESSION|34=60|52=20160128-02:33:47|37=64229796|17=64231804|11=49_1453948427254|55=T|54=1|44=0.0|38=10000.0|40=1|21=1|20=0|151=2000|14=8000|31=99.3125|32=1000|6=99.5625|39=1|150=1|60=20160125-11:33:47.255|10=110|]
low information 2016/01/28 11:33:47:256114: FIXPump: Received data on connection {SIMULATOR_SESSION} [8=FIX.4.2|9=0169|35=D|49=SIMULATOR_SESSION|56=OMSEMS_SESSION|34=62|52=20160128-02:33:47|57=Simulator|40=2|21=2|38=5000|54=1|44=110.5|60=20160128-02:33:47:255|11=51_1453948427255|55=CELL|10=004|]
low information 2016/01/28 11:33:47:256226: FIXConnectionData: Sending data on connection {SIMULATOR_SESSION} [8=FIX.4.2|9=0243|35=8|49=OMSEMS_SESSION|56=SIMULATOR_SESSION|34=61|52=20160128-02:33:47|37=64229796|17=64231804|11=50_1453948427255|55=INTL|54=1|44=0.0|38=10000.0|40=1|21=1|20=0|151=2000|14=8000|31=99.3125|32=1000|6=99.5625|39=1|150=1|60=20160125-11:33:47.255|10=078|]
low information 2016/01/28 11:33:47:256410: FIXConnectionData: Sending data on connection {SIMULATOR_SESSION} [8=FIX.4.2|9=0243|35=8|49=OMSEMS_SESSION|56=SIMULATOR_SESSION|34=62|52=20160128-02:33:47|37=64229796|17=64231804|11=51_1453948427255|55=CELL|54=1|44=0.0|38=10000.0|40=1|21=1|20=0|151=2000|14=8000|31=99.3125|32=1000|6=99.5625|39=1|150=1|60=20160125-11:33:47.256|10=058|]
low information 2016/01/28 11:33:47:256457: FIXPump: Received data on connection {SIMULATOR_SESSION} [8=FIX.4.2|9=0169|35=D|49=SIMULATOR_SESSION|56=OMSEMS_SESSION|34=63|52=20160128-02:33:47|57=Simulator|40=2|21=2|38=5000|54=1|44=110.5|60=20160128-02:33:47:255|11=52_1453948427255|55=PPRT|10=044|]
low information 2016/01/28 11:33:47:256821: FIXConnectionData: Sending data on connection {SIMULATOR_SESSION} [8=FIX.4.2|9=0243|35=8|49=OMSEMS_SESSION|56=SIMULATOR_SESSION|34=63|52=20160128-02:33:47|37=64229796|17=64231804|11=52_1453948427255|55=PPRT|54=1|44=0.0|38=10000.0|40=1|21=1|20=0|151=2000|14=8000|31=99.3125|32=1000|6=99.5625|39=1|150=1|60=20160125-11:33:47.256|10=098|]
low information 2016/01/28 11:33:47:256825: FIXPump: Received data on connection {SIMULATOR_SESSION} [8=FIX.4.2|9=0169|35=D|49=SIMULATOR_SESSION|56=OMSEMS_SESSION|34=64|52=20160128-02:33:47|57=Simulator|40=2|21=2|38=5000|54=1|44=110.5|60=20160128-02:33:47:255|11=53_1453948427256|55=VISX|10=051|]
low information 2016/01/28 11:33:47:257080: FIXPump: Received data on connection {SIMULATOR_SESSION} [8=FIX.4.2|9=0167|35=D|49=SIMULATOR_SESSION|56=OMSEMS_SESSION|34=65|52=20160128-02:33:47|57=Simulator|40=2|21=2|38=5000|54=1|44=110.5|60=20160128-02:33:47:256|11=54_1453948427256|55=GE|10=118|]
low information 2016/01/28 11:33:47:257206: FIXConnectionData: Sending data on connection {SIMULATOR_SESSION} [8=FIX.4.2|9=0243|35=8|49=OMSEMS_SESSION|56=SIMULATOR_SESSION|34=64|52=20160128-02:33:47|37=64229796|17=64231804|11=53_1453948427256|55=VISX|54=1|44=0.0|38=10000.0|40=1|21=1|20=0|151=2000|14=8000|31=99.3125|32=1000|6=99.5625|39=1|150=1|60=20160125-11:33:47.257|10=106|]
low information 2016/01/28 11:33:47:257470: FIXConnectionData: Sending data on connection {SIMULATOR_SESSION} [8=FIX.4.2|9=0241|35=8|49=OMSEMS_SESSION|56=SIMULATOR_SESSION|34=65|52=20160128-02:33:47|37=64229796|17=64231804|11=54_1453948427256|55=GE|54=1|44=0.0|38=10000.0|40=1|21=1|20=0|151=2000|14=8000|31=99.3125|32=1000|6=99.5625|39=1|150=1|60=20160125-11:33:47.257|10=172|]
low information 2016/01/28 11:33:47:388491: FIXPump: Received data on connection {SIMULATOR_SESSION} [8=FIX.4.2|9=0167|35=D|49=SIMULATOR_SESSION|56=OMSEMS_SESSION|34=66|52=20160128-02:33:47|57=Simulator|40=2|21=2|38=5000|54=1|44=110.5|60=20160128-02:33:47:387|11=55_1453948427387|55=GM|10=138|]
low information 2016/01/28 11:33:47:388730: FIXPump: Received data on connection {SIMULATOR_SESSION} [8=FIX.4.2|9=0168|35=D|49=SIMULATOR_SESSION|56=OMSEMS_SESSION|34=67|52=20160128-02:33:47|57=Simulator|40=2|21=2|38=5000|54=1|44=110.5|60=20160128-02:33:47:388|11=56_1453948427388|55=GTE|10=219|]
low information 2016/01/28 11:33:47:388941: FIXPump: Received data on connection {SIMULATOR_SESSION} [8=FIX.4.2|9=0167|35=D|49=SIMULATOR_SESSION|56=OMSEMS_SESSION|34=68|52=20160128-02:33:47|57=Simulator|40=2|21=2|38=5000|54=1|44=110.5|60=20160128-02:33:47:388|11=57_1453948427388|55=HP|10=148|]
low information 2016/01/28 11:33:47:389116: FIXPump: Received data on connection {SIMULATOR_SESSION} [8=FIX.4.2|9=0169|35=D|49=SIMULATOR_SESSION|56=OMSEMS_SESSION|34=69|52=20160128-02:33:47|57=Simulator|40=2|21=2|38=5000|54=1|44=110.5|60=20160128-02:33:47:388|11=58_1453948427388|55=DELL|10=033|]
low information 2016/01/28 11:33:47:389174: FIXConnectionData: Sending data on connection {SIMULATOR_SESSION} [8=FIX.4.2|9=0241|35=8|49=OMSEMS_SESSION|56=SIMULATOR_SESSION|34=66|52=20160128-02:33:47|37=64229796|17=64231804|11=55_1453948427387|55=GM|54=1|44=0.0|38=10000.0|40=1|21=1|20=0|151=2000|14=8000|31=99.3125|32=1000|6=99.5625|39=1|150=1|60=20160125-11:33:47.388|10=192|]
low information 2016/01/28 11:33:47:389279: FIXConnectionData: Sending data on connection {SIMULATOR_SESSION} [8=FIX.4.2|9=0242|35=8|49=OMSEMS_SESSION|56=SIMULATOR_SESSION|34=67|52=20160128-02:33:47|37=64229796|17=64231804|11=56_1453948427388|55=GTE|54=1|44=0.0|38=10000.0|40=1|21=1|20=0|151=2000|14=8000|31=99.3125|32=1000|6=99.5625|39=1|150=1|60=20160125-11:33:47.389|10=017|]
low information 2016/01/28 11:33:47:389319: FIXPump: Received data on connection {SIMULATOR_SESSION} [8=FIX.4.2|9=0169|35=D|49=SIMULATOR_SESSION|56=OMSEMS_SESSION|34=70|52=20160128-02:33:47|57=Simulator|40=2|21=2|38=5000|54=1|44=110.5|60=20160128-02:33:47:388|11=59_1453948427388|55=SUNW|10=070|]
low information 2016/01/28 11:33:47:389442: FIXConnectionData: Sending data on connection {SIMULATOR_SESSION} [8=FIX.4.2|9=0241|35=8|49=OMSEMS_SESSION|56=SIMULATOR_SESSION|34=68|52=20160128-02:33:47|37=64229796|17=64231804|11=57_1453948427388|55=HP|54=1|44=0.0|38=10000.0|40=1|21=1|20=0|151=2000|14=8000|31=99.3125|32=1000|6=99.5625|39=1|150=1|60=20160125-11:33:47.389|10=202|]
low information 2016/01/28 11:33:47:389524: FIXConnectionData: Sending data on connection {SIMULATOR_SESSION} [8=FIX.4.2|9=0243|35=8|49=OMSEMS_SESSION|56=SIMULATOR_SESSION|34=69|52=20160128-02:33:47|37=64229796|17=64231804|11=58_1453948427388|55=DELL|54=1|44=0.0|38=10000.0|40=1|21=1|20=0|151=2000|14=8000|31=99.3125|32=1000|6=99.5625|39=1|150=1|60=20160125-11:33:47.389|10=087|]
low information 2016/01/28 11:33:47:389581: FIXPump: Received data on connection {SIMULATOR_SESSION} [8=FIX.4.2|9=0168|35=D|49=SIMULATOR_SESSION|56=OMSEMS_SESSION|34=71|52=20160128-02:33:47|57=Simulator|40=2|21=2|38=5000|54=1|44=110.5|60=20160128-02:33:47:388|11=60_1453948427388|55=IBM|10=201|]
low information 2016/01/28 11:33:47:389737: FIXConnectionData: Sending data on connection {SIMULATOR_SESSION} [8=FIX.4.2|9=0243|35=8|49=OMSEMS_SESSION|56=SIMULATOR_SESSION|34=70|52=20160128-02:33:47|37=64229796|17=64231804|11=59_1453948427388|55=SUNW|54=1|44=0.0|38=10000.0|40=1|21=1|20=0|151=2000|14=8000|31=99.3125|32=1000|6=99.5625|39=1|150=1|60=20160125-11:33:47.389|10=124|]
low information 2016/01/28 11:33:47:389865: FIXConnectionData: Sending data on connection {SIMULATOR_SESSION} [8=FIX.4.2|9=0242|35=8|49=OMSEMS_SESSION|56=SIMULATOR_SESSION|34=71|52=20160128-02:33:47|37=64229796|17=64231804|11=60_1453948427388|55=IBM|54=1|44=0.0|38=10000.0|40=1|21=1|20=0|151=2000|14=8000|31=99.3125|32=1000|6=99.5625|39=1|150=1|60=20160125-11:33:47.389|10=255|]
low information 2016/01/28 11:33:47:389872: FIXPump: Received data on connection {SIMULATOR_SESSION} [8=FIX.4.2|9=0169|35=D|49=SIMULATOR_SESSION|56=OMSEMS_SESSION|34=72|52=20160128-02:33:47|57=Simulator|40=2|21=2|38=5000|54=1|44=110.5|60=20160128-02:33:47:389|11=61_1453948427389|55=MSFT|10=048|]
low information 2016/01/28 11:33:47:390095: FIXPump: Received data on connection {SIMULATOR_SESSION} [8=FIX.4.2|9=0169|35=D|49=SIMULATOR_SESSION|56=OMSEMS_SESSION|34=73|52=20160128-02:33:47|57=Simulator|40=2|21=2|38=5000|54=1|44=110.5|60=20160128-02:33:47:389|11=62_1453948427389|55=NSCP|10=044|]
low information 2016/01/28 11:33:47:390198: FIXConnectionData: Sending data on connection {SIMULATOR_SESSION} [8=FIX.4.2|9=0243|35=8|49=OMSEMS_SESSION|56=SIMULATOR_SESSION|34=72|52=20160128-02:33:47|37=64229796|17=64231804|11=61_1453948427389|55=MSFT|54=1|44=0.0|38=10000.0|40=1|21=1|20=0|151=2000|14=8000|31=99.3125|32=1000|6=99.5625|39=1|150=1|60=20160125-11:33:47.390|10=093|]
low information 2016/01/28 11:33:47:390335: FIXPump: Received data on connection {SIMULATOR_SESSION} [8=FIX.4.2|9=0168|35=D|49=SIMULATOR_SESSION|56=OMSEMS_SESSION|34=74|52=20160128-02:33:47|57=Simulator|40=2|21=2|38=5000|54=1|44=110.5|60=20160128-02:33:47:389|11=63_1453948427389|55=EMC|10=206|]
low information 2016/01/28 11:33:47:390394: FIXConnectionData: Sending data on connection {SIMULATOR_SESSION} [8=FIX.4.2|9=0243|35=8|49=OMSEMS_SESSION|56=SIMULATOR_SESSION|34=73|52=20160128-02:33:47|37=64229796|17=64231804|11=62_1453948427389|55=NSCP|54=1|44=0.0|38=10000.0|40=1|21=1|20=0|151=2000|14=8000|31=99.3125|32=1000|6=99.5625|39=1|150=1|60=20160125-11:33:47.390|10=089|]
low information 2016/01/28 11:33:47:390559: FIXPump: Received data on connection {SIMULATOR_SESSION} [8=FIX.4.2|9=0169|35=D|49=SIMULATOR_SESSION|56=OMSEMS_SESSION|34=75|52=20160128-02:33:47|57=Simulator|40=2|21=2|38=5000|54=1|44=110.5|60=20160128-02:33:47:389|11=64_1453948427389|55=EBAY|10=029|]
low information 2016/01/28 11:33:47:390670: FIXConnectionData: Sending data on connection {SIMULATOR_SESSION} [8=FIX.4.2|9=0242|35=8|49=OMSEMS_SESSION|56=SIMULATOR_SESSION|34=74|52=20160128-02:33:47|37=64229796|17=64231804|11=63_1453948427389|55=EMC|54=1|44=0.0|38=10000.0|40=1|21=1|20=0|151=2000|14=8000|31=99.3125|32=1000|6=99.5625|39=1|150=1|60=20160125-11:33:47.390|10=251|]
low information 2016/01/28 11:33:47:390855: FIXPump: Received data on connection {SIMULATOR_SESSION} [8=FIX.4.2|9=0169|35=D|49=SIMULATOR_SESSION|56=OMSEMS_SESSION|34=76|52=20160128-02:33:47|57=Simulator|40=2|21=2|38=5000|54=1|44=110.5|60=20160128-02:33:47:390|11=65_1453948427390|55=YHOO|10=045|]
low information 2016/01/28 11:33:47:390884: FIXConnectionData: Sending data on connection {SIMULATOR_SESSION} [8=FIX.4.2|9=0243|35=8|49=OMSEMS_SESSION|56=SIMULATOR_SESSION|34=75|52=20160128-02:33:47|37=64229796|17=64231804|11=64_1453948427389|55=EBAY|54=1|44=0.0|38=10000.0|40=1|21=1|20=0|151=2000|14=8000|31=99.3125|32=1000|6=99.5625|39=1|150=1|60=20160125-11:33:47.390|10=074|]
low information 2016/01/28 11:33:47:391099: FIXPump: Received data on connection {SIMULATOR_SESSION} [8=FIX.4.2|9=0169|35=D|49=SIMULATOR_SESSION|56=OMSEMS_SESSION|34=77|52=20160128-02:33:47|57=Simulator|40=2|21=2|38=5000|54=1|44=110.5|60=20160128-02:33:47:390|11=66_1453948427390|55=CSCO|10=024|]
low information 2016/01/28 11:33:47:391127: FIXConnectionData: Sending data on connection {SIMULATOR_SESSION} [8=FIX.4.2|9=0243|35=8|49=OMSEMS_SESSION|56=SIMULATOR_SESSION|34=76|52=20160128-02:33:47|37=64229796|17=64231804|11=65_1453948427390|55=YHOO|54=1|44=0.0|38=10000.0|40=1|21=1|20=0|151=2000|14=8000|31=99.3125|32=1000|6=99.5625|39=1|150=1|60=20160125-11:33:47.391|10=099|]
low information 2016/01/28 11:33:47:391393: FIXConnectionData: Sending data on connection {SIMULATOR_SESSION} [8=FIX.4.2|9=0243|35=8|49=OMSEMS_SESSION|56=SIMULATOR_SESSION|34=77|52=20160128-02:33:47|37=64229796|17=64231804|11=66_1453948427390|55=CSCO|54=1|44=0.0|38=10000.0|40=1|21=1|20=0|151=2000|14=8000|31=99.3125|32=1000|6=99.5625|39=1|150=1|60=20160125-11:33:47.391|10=078|]
low information 2016/01/28 11:33:47:391414: FIXPump: Received data on connection {SIMULATOR_SESSION} [8=FIX.4.2|9=0168|35=D|49=SIMULATOR_SESSION|56=OMSEMS_SESSION|34=78|52=20160128-02:33:47|57=Simulator|40=2|21=2|38=5000|54=1|44=110.5|60=20160128-02:33:47:390|11=67_1453948427390|55=AOL|10=205|]
low information 2016/01/28 11:33:47:391661: FIXPump: Received data on connection {SIMULATOR_SESSION} [8=FIX.4.2|9=0167|35=D|49=SIMULATOR_SESSION|56=OMSEMS_SESSION|34=79|52=20160128-02:33:47|57=Simulator|40=2|21=2|38=5000|54=1|44=110.5|60=20160128-02:33:47:390|11=68_1453948427390|55=MO|10=142|]
low information 2016/01/28 11:33:47:391922: FIXPump: Received data on connection {SIMULATOR_SESSION} [8=FIX.4.2|9=0166|35=D|49=SIMULATOR_SESSION|56=OMSEMS_SESSION|34=80|52=20160128-02:33:47|57=Simulator|40=2|21=2|38=5000|54=1|44=110.5|60=20160128-02:33:47:391|11=69_1453948427391|55=T|10=064|]
low information 2016/01/28 11:33:47:392014: FIXConnectionData: Sending data on connection {SIMULATOR_SESSION} [8=FIX.4.2|9=0242|35=8|49=OMSEMS_SESSION|56=SIMULATOR_SESSION|34=78|52=20160128-02:33:47|37=64229796|17=64231804|11=67_1453948427390|55=AOL|54=1|44=0.0|38=10000.0|40=1|21=1|20=0|151=2000|14=8000|31=99.3125|32=1000|6=99.5625|39=1|150=1|60=20160125-11:33:47.391|10=003|]
low information 2016/01/28 11:33:47:392082: FIXConnectionData: Sending data on connection {SIMULATOR_SESSION} [8=FIX.4.2|9=0241|35=8|49=OMSEMS_SESSION|56=SIMULATOR_SESSION|34=79|52=20160128-02:33:47|37=64229796|17=64231804|11=68_1453948427390|55=MO|54=1|44=0.0|38=10000.0|40=1|21=1|20=0|151=2000|14=8000|31=99.3125|32=1000|6=99.5625|39=1|150=1|60=20160125-11:33:47.391|10=196|]
low information 2016/01/28 11:33:47:392255: FIXPump: Received data on connection {SIMULATOR_SESSION} [8=FIX.4.2|9=0169|35=D|49=SIMULATOR_SESSION|56=OMSEMS_SESSION|34=81|52=20160128-02:33:47|57=Simulator|40=2|21=2|38=5000|54=1|44=110.5|60=20160128-02:33:47:391|11=70_1453948427391|55=INTL|10=031|]
low information 2016/01/28 11:33:47:392538: FIXPump: Received data on connection {SIMULATOR_SESSION} [8=FIX.4.2|9=0169|35=D|49=SIMULATOR_SESSION|56=OMSEMS_SESSION|34=82|52=20160128-02:33:47|57=Simulator|40=2|21=2|38=5000|54=1|44=110.5|60=20160128-02:33:47:391|11=71_1453948427391|55=CELL|10=010|]
low information 2016/01/28 11:33:47:392550: FIXConnectionData: Sending data on connection {SIMULATOR_SESSION} [8=FIX.4.2|9=0240|35=8|49=OMSEMS_SESSION|56=SIMULATOR_SESSION|34=80|52=20160128-02:33:47|37=64229796|17=64231804|11=69_1453948427391|55=T|54=1|44=0.0|38=10000.0|40=1|21=1|20=0|151=2000|14=8000|31=99.3125|32=1000|6=99.5625|39=1|150=1|60=20160125-11:33:47.392|10=118|]
low information 2016/01/28 11:33:47:392767: FIXConnectionData: Sending data on connection {SIMULATOR_SESSION} [8=FIX.4.2|9=0243|35=8|49=OMSEMS_SESSION|56=SIMULATOR_SESSION|34=81|52=20160128-02:33:47|37=64229796|17=64231804|11=70_1453948427391|55=INTL|54=1|44=0.0|38=10000.0|40=1|21=1|20=0|151=2000|14=8000|31=99.3125|32=1000|6=99.5625|39=1|150=1|60=20160125-11:33:47.392|10=085|]
low information 2016/01/28 11:33:47:392786: FIXPump: Received data on connection {SIMULATOR_SESSION} [8=FIX.4.2|9=0169|35=D|49=SIMULATOR_SESSION|56=OMSEMS_SESSION|34=83|52=20160128-02:33:47|57=Simulator|40=2|21=2|38=5000|54=1|44=110.5|60=20160128-02:33:47:392|11=72_1453948427392|55=PPRT|10=052|]
low information 2016/01/28 11:33:47:392970: FIXPump: Received data on connection {SIMULATOR_SESSION} [8=FIX.4.2|9=0169|35=D|49=SIMULATOR_SESSION|56=OMSEMS_SESSION|34=84|52=20160128-02:33:47|57=Simulator|40=2|21=2|38=5000|54=1|44=110.5|60=20160128-02:33:47:392|11=73_1453948427392|55=VISX|10=058|]
low information 2016/01/28 11:33:47:393163: FIXConnectionData: Sending data on connection {SIMULATOR_SESSION} [8=FIX.4.2|9=0243|35=8|49=OMSEMS_SESSION|56=SIMULATOR_SESSION|34=82|52=20160128-02:33:47|37=64229796|17=64231804|11=71_1453948427391|55=CELL|54=1|44=0.0|38=10000.0|40=1|21=1|20=0|151=2000|14=8000|31=99.3125|32=1000|6=99.5625|39=1|150=1|60=20160125-11:33:47.392|10=064|]
low information 2016/01/28 11:33:47:393193: FIXPump: Received data on connection {SIMULATOR_SESSION} [8=FIX.4.2|9=0167|35=D|49=SIMULATOR_SESSION|56=OMSEMS_SESSION|34=85|52=20160128-02:33:47|57=Simulator|40=2|21=2|38=5000|54=1|44=110.5|60=20160128-02:33:47:392|11=74_1453948427392|55=GE|10=124|]
low information 2016/01/28 11:33:47:393255: FIXConnectionData: Sending data on connection {SIMULATOR_SESSION} [8=FIX.4.2|9=0243|35=8|49=OMSEMS_SESSION|56=SIMULATOR_SESSION|34=83|52=20160128-02:33:47|37=64229796|17=64231804|11=72_1453948427392|55=PPRT|54=1|44=0.0|38=10000.0|40=1|21=1|20=0|151=2000|14=8000|31=99.3125|32=1000|6=99.5625|39=1|150=1|60=20160125-11:33:47.392|10=105|]
low information 2016/01/28 11:33:47:393337: FIXConnectionData: Sending data on connection {SIMULATOR_SESSION} [8=FIX.4.2|9=0243|35=8|49=OMSEMS_SESSION|56=SIMULATOR_SESSION|34=84|52=20160128-02:33:47|37=64229796|17=64231804|11=73_1453948427392|55=VISX|54=1|44=0.0|38=10000.0|40=1|21=1|20=0|151=2000|14=8000|31=99.3125|32=1000|6=99.5625|39=1|150=1|60=20160125-11:33:47.393|10=112|]
low information 2016/01/28 11:33:47:393469: FIXConnectionData: Sending data on connection {SIMULATOR_SESSION} [8=FIX.4.2|9=0241|35=8|49=OMSEMS_SESSION|56=SIMULATOR_SESSION|34=85|52=20160128-02:33:47|37=64229796|17=64231804|11=74_1453948427392|55=GE|54=1|44=0.0|38=10000.0|40=1|21=1|20=0|151=2000|14=8000|31=99.3125|32=1000|6=99.5625|39=1|150=1|60=20160125-11:33:47.393|10=178|]
low information 2016/01/28 11:33:47:393484: FIXPump: Received data on connection {SIMULATOR_SESSION} [8=FIX.4.2|9=0167|35=D|49=SIMULATOR_SESSION|56=OMSEMS_SESSION|34=86|52=20160128-02:33:47|57=Simulator|40=2|21=2|38=5000|54=1|44=110.5|60=20160128-02:33:47:392|11=75_1453948427392|55=GM|10=134|]
low information 2016/01/28 11:33:47:393690: FIXPump: Received data on connection {SIMULATOR_SESSION} [8=FIX.4.2|9=0168|35=D|49=SIMULATOR_SESSION|56=OMSEMS_SESSION|34=87|52=20160128-02:33:47|57=Simulator|40=2|21=2|38=5000|54=1|44=110.5|60=20160128-02:33:47:392|11=76_1453948427392|55=GTE|10=213|]
low information 2016/01/28 11:33:47:393817: FIXPump: Received data on connection {SIMULATOR_SESSION} [8=FIX.4.2|9=0167|35=D|49=SIMULATOR_SESSION|56=OMSEMS_SESSION|34=88|52=20160128-02:33:47|57=Simulator|40=2|21=2|38=5000|54=1|44=110.5|60=20160128-02:33:47:393|11=77_1453948427393|55=HP|10=144|]
low information 2016/01/28 11:33:47:394095: FIXPump: Received data on connection {SIMULATOR_SESSION} [8=FIX.4.2|9=0169|35=D|49=SIMULATOR_SESSION|56=OMSEMS_SESSION|34=89|52=20160128-02:33:47|57=Simulator|40=2|21=2|38=5000|54=1|44=110.5|60=20160128-02:33:47:393|11=78_1453948427393|55=DELL|10=029|]
low information 2016/01/28 11:33:47:394174: FIXConnectionData: Sending data on connection {SIMULATOR_SESSION} [8=FIX.4.2|9=0241|35=8|49=OMSEMS_SESSION|56=SIMULATOR_SESSION|34=86|52=20160128-02:33:47|37=64229796|17=64231804|11=75_1453948427392|55=GM|54=1|44=0.0|38=10000.0|40=1|21=1|20=0|151=2000|14=8000|31=99.3125|32=1000|6=99.5625|39=1|150=1|60=20160125-11:33:47.393|10=188|]
low information 2016/01/28 11:33:47:394182: FIXPump: Received data on connection {SIMULATOR_SESSION} [8=FIX.4.2|9=0169|35=D|49=SIMULATOR_SESSION|56=OMSEMS_SESSION|34=90|52=20160128-02:33:47|57=Simulator|40=2|21=2|38=5000|54=1|44=110.5|60=20160128-02:33:47:393|11=79_1453948427393|55=SUNW|10=066|]
low information 2016/01/28 11:33:47:394273: FIXConnectionData: Sending data on connection {SIMULATOR_SESSION} [8=FIX.4.2|9=0242|35=8|49=OMSEMS_SESSION|56=SIMULATOR_SESSION|34=87|52=20160128-02:33:47|37=64229796|17=64231804|11=76_1453948427392|55=GTE|54=1|44=0.0|38=10000.0|40=1|21=1|20=0|151=2000|14=8000|31=99.3125|32=1000|6=99.5625|39=1|150=1|60=20160125-11:33:47.393|10=011|]
low information 2016/01/28 11:33:47:394362: FIXConnectionData: Sending data on connection {SIMULATOR_SESSION} [8=FIX.4.2|9=0241|35=8|49=OMSEMS_SESSION|56=SIMULATOR_SESSION|34=88|52=20160128-02:33:47|37=64229796|17=64231804|11=77_1453948427393|55=HP|54=1|44=0.0|38=10000.0|40=1|21=1|20=0|151=2000|14=8000|31=99.3125|32=1000|6=99.5625|39=1|150=1|60=20160125-11:33:47.393|10=197|]
low information 2016/01/28 11:33:47:394452: FIXPump: Received data on connection {SIMULATOR_SESSION} [8=FIX.4.2|9=0168|35=D|49=SIMULATOR_SESSION|56=OMSEMS_SESSION|34=91|52=20160128-02:33:47|57=Simulator|40=2|21=2|38=5000|54=1|44=110.5|60=20160128-02:33:47:393|11=80_1453948427393|55=IBM|10=197|]
low information 2016/01/28 11:33:47:394607: FIXPump: Received data on connection {SIMULATOR_SESSION} [8=FIX.4.2|9=0169|35=D|49=SIMULATOR_SESSION|56=OMSEMS_SESSION|34=92|52=20160128-02:33:47|57=Simulator|40=2|21=2|38=5000|54=1|44=110.5|60=20160128-02:33:47:393|11=81_1453948427393|55=MSFT|10=042|]
low information 2016/01/28 11:33:47:394999: FIXPump: Received data on connection {SIMULATOR_SESSION} [8=FIX.4.2|9=0169|35=D|49=SIMULATOR_SESSION|56=OMSEMS_SESSION|34=93|52=20160128-02:33:47|57=Simulator|40=2|21=2|38=5000|54=1|44=110.5|60=20160128-02:33:47:394|11=82_1453948427394|55=NSCP|10=040|]
low information 2016/01/28 11:33:47:395067: FIXPump: Received data on connection {SIMULATOR_SESSION} [8=FIX.4.2|9=0168|35=D|49=SIMULATOR_SESSION|56=OMSEMS_SESSION|34=94|52=20160128-02:33:47|57=Simulator|40=2|21=2|38=5000|54=1|44=110.5|60=20160128-02:33:47:394|11=83_1453948427394|55=EMC|10=202|]
low information 2016/01/28 11:33:47:395327: FIXConnectionData: Sending data on connection {SIMULATOR_SESSION} [8=FIX.4.2|9=0243|35=8|49=OMSEMS_SESSION|56=SIMULATOR_SESSION|34=89|52=20160128-02:33:47|37=64229796|17=64231804|11=78_1453948427393|55=DELL|54=1|44=0.0|38=10000.0|40=1|21=1|20=0|151=2000|14=8000|31=99.3125|32=1000|6=99.5625|39=1|150=1|60=20160125-11:33:47.394|10=083|]
low information 2016/01/28 11:33:47:395330: FIXPump: Received data on connection {SIMULATOR_SESSION} [8=FIX.4.2|9=0169|35=D|49=SIMULATOR_SESSION|56=OMSEMS_SESSION|34=95|52=20160128-02:33:47|57=Simulator|40=2|21=2|38=5000|54=1|44=110.5|60=20160128-02:33:47:394|11=84_1453948427394|55=EBAY|10=025|]
low information 2016/01/28 11:33:47:395400: FIXConnectionData: Sending data on connection {SIMULATOR_SESSION} [8=FIX.4.2|9=0243|35=8|49=OMSEMS_SESSION|56=SIMULATOR_SESSION|34=90|52=20160128-02:33:47|37=64229796|17=64231804|11=79_1453948427393|55=SUNW|54=1|44=0.0|38=10000.0|40=1|21=1|20=0|151=2000|14=8000|31=99.3125|32=1000|6=99.5625|39=1|150=1|60=20160125-11:33:47.394|10=120|]
low information 2016/01/28 11:33:47:395478: FIXConnectionData: Sending data on connection {SIMULATOR_SESSION} [8=FIX.4.2|9=0242|35=8|49=OMSEMS_SESSION|56=SIMULATOR_SESSION|34=91|52=20160128-02:33:47|37=64229796|17=64231804|11=80_1453948427393|55=IBM|54=1|44=0.0|38=10000.0|40=1|21=1|20=0|151=2000|14=8000|31=99.3125|32=1000|6=99.5625|39=1|150=1|60=20160125-11:33:47.394|10=251|]
low information 2016/01/28 11:33:47:395552: FIXConnectionData: Sending data on connection {SIMULATOR_SESSION} [8=FIX.4.2|9=0243|35=8|49=OMSEMS_SESSION|56=SIMULATOR_SESSION|34=92|52=20160128-02:33:47|37=64229796|17=64231804|11=81_1453948427393|55=MSFT|54=1|44=0.0|38=10000.0|40=1|21=1|20=0|151=2000|14=8000|31=99.3125|32=1000|6=99.5625|39=1|150=1|60=20160125-11:33:47.394|10=096|]
low information 2016/01/28 11:33:47:395621: FIXPump: Received data on connection {SIMULATOR_SESSION} [8=FIX.4.2|9=0169|35=D|49=SIMULATOR_SESSION|56=OMSEMS_SESSION|34=96|52=20160128-02:33:47|57=Simulator|40=2|21=2|38=5000|54=1|44=110.5|60=20160128-02:33:47:394|11=85_1453948427394|55=YHOO|10=057|]
low information 2016/01/28 11:33:47:395643: FIXConnectionData: Sending data on connection {SIMULATOR_SESSION} [8=FIX.4.2|9=0243|35=8|49=OMSEMS_SESSION|56=SIMULATOR_SESSION|34=93|52=20160128-02:33:47|37=64229796|17=64231804|11=82_1453948427394|55=NSCP|54=1|44=0.0|38=10000.0|40=1|21=1|20=0|151=2000|14=8000|31=99.3125|32=1000|6=99.5625|39=1|150=1|60=20160125-11:33:47.395|10=094|]
low information 2016/01/28 11:33:47:395712: FIXConnectionData: Sending data on connection {SIMULATOR_SESSION} [8=FIX.4.2|9=0242|35=8|49=OMSEMS_SESSION|56=SIMULATOR_SESSION|34=94|52=20160128-02:33:47|37=64229796|17=64231804|11=83_1453948427394|55=EMC|54=1|44=0.0|38=10000.0|40=1|21=1|20=0|151=2000|14=8000|31=99.3125|32=1000|6=99.5625|39=1|150=1|60=20160125-11:33:47.395|10=000|]
low information 2016/01/28 11:33:47:395785: FIXConnectionData: Sending data on connection {SIMULATOR_SESSION} [8=FIX.4.2|9=0243|35=8|49=OMSEMS_SESSION|56=SIMULATOR_SESSION|34=95|52=20160128-02:33:47|37=64229796|17=64231804|11=84_1453948427394|55=EBAY|54=1|44=0.0|38=10000.0|40=1|21=1|20=0|151=2000|14=8000|31=99.3125|32=1000|6=99.5625|39=1|150=1|60=20160125-11:33:47.395|10=079|]
low information 2016/01/28 11:33:47:395812: FIXPump: Received data on connection {SIMULATOR_SESSION} [8=FIX.4.2|9=0169|35=D|49=SIMULATOR_SESSION|56=OMSEMS_SESSION|34=97|52=20160128-02:33:47|57=Simulator|40=2|21=2|38=5000|54=1|44=110.5|60=20160128-02:33:47:395|11=86_1453948427395|55=CSCO|10=038|]
low information 2016/01/28 11:33:47:396133: FIXPump: Received data on connection {SIMULATOR_SESSION} [8=FIX.4.2|9=0168|35=D|49=SIMULATOR_SESSION|56=OMSEMS_SESSION|34=98|52=20160128-02:33:47|57=Simulator|40=2|21=2|38=5000|54=1|44=110.5|60=20160128-02:33:47:395|11=87_1453948427395|55=AOL|10=219|]
low information 2016/01/28 11:33:47:396280: FIXPump: Received data on connection {SIMULATOR_SESSION} [8=FIX.4.2|9=0167|35=D|49=SIMULATOR_SESSION|56=OMSEMS_SESSION|34=99|52=20160128-02:33:47|57=Simulator|40=2|21=2|38=5000|54=1|44=110.5|60=20160128-02:33:47:395|11=88_1453948427395|55=MO|10=156|]
low information 2016/01/28 11:33:47:396491: FIXPump: Received data on connection {SIMULATOR_SESSION} [8=FIX.4.2|9=0167|35=D|49=SIMULATOR_SESSION|56=OMSEMS_SESSION|34=100|52=20160128-02:33:47|57=Simulator|40=2|21=2|38=5000|54=1|44=110.5|60=20160128-02:33:47:395|11=89_1453948427395|55=T|10=116|]
low information 2016/01/28 11:33:47:396554: FIXConnectionData: Sending data on connection {SIMULATOR_SESSION} [8=FIX.4.2|9=0243|35=8|49=OMSEMS_SESSION|56=SIMULATOR_SESSION|34=96|52=20160128-02:33:47|37=64229796|17=64231804|11=85_1453948427394|55=YHOO|54=1|44=0.0|38=10000.0|40=1|21=1|20=0|151=2000|14=8000|31=99.3125|32=1000|6=99.5625|39=1|150=1|60=20160125-11:33:47.396|10=112|]
low information 2016/01/28 11:33:47:396645: FIXConnectionData: Sending data on connection {SIMULATOR_SESSION} [8=FIX.4.2|9=0243|35=8|49=OMSEMS_SESSION|56=SIMULATOR_SESSION|34=97|52=20160128-02:33:47|37=64229796|17=64231804|11=86_1453948427395|55=CSCO|54=1|44=0.0|38=10000.0|40=1|21=1|20=0|151=2000|14=8000|31=99.3125|32=1000|6=99.5625|39=1|150=1|60=20160125-11:33:47.396|10=092|]
low information 2016/01/28 11:33:47:396708: FIXPump: Received data on connection {SIMULATOR_SESSION} [8=FIX.4.2|9=0170|35=D|49=SIMULATOR_SESSION|56=OMSEMS_SESSION|34=101|52=20160128-02:33:47|57=Simulator|40=2|21=2|38=5000|54=1|44=110.5|60=20160128-02:33:47:396|11=90_1453948427396|55=INTL|10=076|]
low information 2016/01/28 11:33:47:396737: FIXConnectionData: Sending data on connection {SIMULATOR_SESSION} [8=FIX.4.2|9=0242|35=8|49=OMSEMS_SESSION|56=SIMULATOR_SESSION|34=98|52=20160128-02:33:47|37=64229796|17=64231804|11=87_1453948427395|55=AOL|54=1|44=0.0|38=10000.0|40=1|21=1|20=0|151=2000|14=8000|31=99.3125|32=1000|6=99.5625|39=1|150=1|60=20160125-11:33:47.396|10=017|]
low information 2016/01/28 11:33:47:396862: FIXConnectionData: Sending data on connection {SIMULATOR_SESSION} [8=FIX.4.2|9=0241|35=8|49=OMSEMS_SESSION|56=SIMULATOR_SESSION|34=99|52=20160128-02:33:47|37=64229796|17=64231804|11=88_1453948427395|55=MO|54=1|44=0.0|38=10000.0|40=1|21=1|20=0|151=2000|14=8000|31=99.3125|32=1000|6=99.5625|39=1|150=1|60=20160125-11:33:47.396|10=210|]
low information 2016/01/28 11:33:47:396866: FIXPump: Received data on connection {SIMULATOR_SESSION} [8=FIX.4.2|9=0170|35=D|49=SIMULATOR_SESSION|56=OMSEMS_SESSION|34=102|52=20160128-02:33:47|57=Simulator|40=2|21=2|38=5000|54=1|44=110.5|60=20160128-02:33:47:396|11=91_1453948427396|55=CELL|10=055|]
low information 2016/01/28 11:33:47:396962: FIXConnectionData: Sending data on connection {SIMULATOR_SESSION} [8=FIX.4.2|9=0241|35=8|49=OMSEMS_SESSION|56=SIMULATOR_SESSION|34=100|52=20160128-02:33:47|37=64229796|17=64231804|11=89_1453948427395|55=T|54=1|44=0.0|38=10000.0|40=1|21=1|20=0|151=2000|14=8000|31=99.3125|32=1000|6=99.5625|39=1|150=1|60=20160125-11:33:47.396|10=170|]
low information 2016/01/28 11:33:47:397082: FIXPump: Received data on connection {SIMULATOR_SESSION} [8=FIX.4.2|9=0170|35=D|49=SIMULATOR_SESSION|56=OMSEMS_SESSION|34=103|52=20160128-02:33:47|57=Simulator|40=2|21=2|38=5000|54=1|44=110.5|60=20160128-02:33:47:396|11=92_1453948427396|55=PPRT|10=095|]
low information 2016/01/28 11:33:47:397221: FIXConnectionData: Sending data on connection {SIMULATOR_SESSION} [8=FIX.4.2|9=0244|35=8|49=OMSEMS_SESSION|56=SIMULATOR_SESSION|34=101|52=20160128-02:33:47|37=64229796|17=64231804|11=90_1453948427396|55=INTL|54=1|44=0.0|38=10000.0|40=1|21=1|20=0|151=2000|14=8000|31=99.3125|32=1000|6=99.5625|39=1|150=1|60=20160125-11:33:47.397|10=139|]
low information 2016/01/28 11:33:47:397439: FIXPump: Received data on connection {SIMULATOR_SESSION} [8=FIX.4.2|9=0170|35=D|49=SIMULATOR_SESSION|56=OMSEMS_SESSION|34=104|52=20160128-02:33:47|57=Simulator|40=2|21=2|38=5000|54=1|44=110.5|60=20160128-02:33:47:396|11=93_1453948427396|55=VISX|10=101|]
low information 2016/01/28 11:33:47:397643: FIXConnectionData: Sending data on connection {SIMULATOR_SESSION} [8=FIX.4.2|9=0244|35=8|49=OMSEMS_SESSION|56=SIMULATOR_SESSION|34=102|52=20160128-02:33:47|37=64229796|17=64231804|11=91_1453948427396|55=CELL|54=1|44=0.0|38=10000.0|40=1|21=1|20=0|151=2000|14=8000|31=99.3125|32=1000|6=99.5625|39=1|150=1|60=20160125-11:33:47.397|10=118|]
low information 2016/01/28 11:33:47:397702: FIXConnectionData: Sending data on connection {SIMULATOR_SESSION} [8=FIX.4.2|9=0244|35=8|49=OMSEMS_SESSION|56=SIMULATOR_SESSION|34=103|52=20160128-02:33:47|37=64229796|17=64231804|11=92_1453948427396|55=PPRT|54=1|44=0.0|38=10000.0|40=1|21=1|20=0|151=2000|14=8000|31=99.3125|32=1000|6=99.5625|39=1|150=1|60=20160125-11:33:47.397|10=158|]
low information 2016/01/28 11:33:47:397764: FIXConnectionData: Sending data on connection {SIMULATOR_SESSION} [8=FIX.4.2|9=0244|35=8|49=OMSEMS_SESSION|56=SIMULATOR_SESSION|34=104|52=20160128-02:33:47|37=64229796|17=64231804|11=93_1453948427396|55=VISX|54=1|44=0.0|38=10000.0|40=1|21=1|20=0|151=2000|14=8000|31=99.3125|32=1000|6=99.5625|39=1|150=1|60=20160125-11:33:47.397|10=164|]
low information 2016/01/28 11:33:47:397800: FIXPump: Received data on connection {SIMULATOR_SESSION} [8=FIX.4.2|9=0168|35=D|49=SIMULATOR_SESSION|56=OMSEMS_SESSION|34=105|52=20160128-02:33:47|57=Simulator|40=2|21=2|38=5000|54=1|44=110.5|60=20160128-02:33:47:397|11=94_1453948427397|55=GE|10=178|]
low information 2016/01/28 11:33:47:398130: FIXPump: Received data on connection {SIMULATOR_SESSION} [8=FIX.4.2|9=0168|35=D|49=SIMULATOR_SESSION|56=OMSEMS_SESSION|34=106|52=20160128-02:33:47|57=Simulator|40=2|21=2|38=5000|54=1|44=110.5|60=20160128-02:33:47:397|11=95_1453948427397|55=GM|10=188|]
low information 2016/01/28 11:33:47:398192: FIXConnectionData: Sending data on connection {SIMULATOR_SESSION} [8=FIX.4.2|9=0242|35=8|49=OMSEMS_SESSION|56=SIMULATOR_SESSION|34=105|52=20160128-02:33:47|37=64229796|17=64231804|11=94_1453948427397|55=GE|54=1|44=0.0|38=10000.0|40=1|21=1|20=0|151=2000|14=8000|31=99.3125|32=1000|6=99.5625|39=1|150=1|60=20160125-11:33:47.397|10=231|]
low information 2016/01/28 11:33:47:398368: FIXConnectionData: Sending data on connection {SIMULATOR_SESSION} [8=FIX.4.2|9=0242|35=8|49=OMSEMS_SESSION|56=SIMULATOR_SESSION|34=106|52=20160128-02:33:47|37=64229796|17=64231804|11=95_1453948427397|55=GM|54=1|44=0.0|38=10000.0|40=1|21=1|20=0|151=2000|14=8000|31=99.3125|32=1000|6=99.5625|39=1|150=1|60=20160125-11:33:47.398|10=242|]
low information 2016/01/28 11:33:47:398399: FIXPump: Received data on connection {SIMULATOR_SESSION} [8=FIX.4.2|9=0169|35=D|49=SIMULATOR_SESSION|56=OMSEMS_SESSION|34=107|52=20160128-02:33:47|57=Simulator|40=2|21=2|38=5000|54=1|44=110.5|60=20160128-02:33:47:397|11=96_1453948427397|55=GTE|10=011|]
low information 2016/01/28 11:33:47:398638: FIXPump: Received data on connection {SIMULATOR_SESSION} [8=FIX.4.2|9=0168|35=D|49=SIMULATOR_SESSION|56=OMSEMS_SESSION|34=108|52=20160128-02:33:47|57=Simulator|40=2|21=2|38=5000|54=1|44=110.5|60=20160128-02:33:47:397|11=97_1453948427398|55=HP|10=197|]
low information 2016/01/28 11:33:47:398666: FIXConnectionData: Sending data on connection {SIMULATOR_SESSION} [8=FIX.4.2|9=0243|35=8|49=OMSEMS_SESSION|56=SIMULATOR_SESSION|34=107|52=20160128-02:33:47|37=64229796|17=64231804|11=96_1453948427397|55=GTE|54=1|44=0.0|38=10000.0|40=1|21=1|20=0|151=2000|14=8000|31=99.3125|32=1000|6=99.5625|39=1|150=1|60=20160125-11:33:47.398|10=065|]
low information 2016/01/28 11:33:47:398860: FIXConnectionData: Sending data on connection {SIMULATOR_SESSION} [8=FIX.4.2|9=0242|35=8|49=OMSEMS_SESSION|56=SIMULATOR_SESSION|34=108|52=20160128-02:33:47|37=64229796|17=64231804|11=97_1453948427398|55=HP|54=1|44=0.0|38=10000.0|40=1|21=1|20=0|151=2000|14=8000|31=99.3125|32=1000|6=99.5625|39=1|150=1|60=20160125-11:33:47.398|10=251|]
low information 2016/01/28 11:33:47:398933: FIXPump: Received data on connection {SIMULATOR_SESSION} [8=FIX.4.2|9=0170|35=D|49=SIMULATOR_SESSION|56=OMSEMS_SESSION|34=109|52=20160128-02:33:47|57=Simulator|40=2|21=2|38=5000|54=1|44=110.5|60=20160128-02:33:47:398|11=98_1453948427398|55=DELL|10=074|]
low information 2016/01/28 11:33:47:399172: FIXConnectionData: Sending data on connection {SIMULATOR_SESSION} [8=FIX.4.2|9=0244|35=8|49=OMSEMS_SESSION|56=SIMULATOR_SESSION|34=109|52=20160128-02:33:47|37=64229796|17=64231804|11=98_1453948427398|55=DELL|54=1|44=0.0|38=10000.0|40=1|21=1|20=0|151=2000|14=8000|31=99.3125|32=1000|6=99.5625|39=1|150=1|60=20160125-11:33:47.399|10=137|]
low information 2016/01/28 11:33:47:399174: FIXPump: Received data on connection {SIMULATOR_SESSION} [8=FIX.4.2|9=0170|35=D|49=SIMULATOR_SESSION|56=OMSEMS_SESSION|34=110|52=20160128-02:33:47|57=Simulator|40=2|21=2|38=5000|54=1|44=110.5|60=20160128-02:33:47:398|11=99_1453948427398|55=SUNW|10=111|]
low information 2016/01/28 11:33:47:399340: FIXPump: Received data on connection {SIMULATOR_SESSION} [8=FIX.4.2|9=0170|35=D|49=SIMULATOR_SESSION|56=OMSEMS_SESSION|34=111|52=20160128-02:33:47|57=Simulator|40=2|21=2|38=5000|54=1|44=110.5|60=20160128-02:33:47:398|11=100_1453948427398|55=IBM|10=026|]
low information 2016/01/28 11:33:47:399391: FIXConnectionData: Sending data on connection {SIMULATOR_SESSION} [8=FIX.4.2|9=0244|35=8|49=OMSEMS_SESSION|56=SIMULATOR_SESSION|34=110|52=20160128-02:33:47|37=64229796|17=64231804|11=99_1453948427398|55=SUNW|54=1|44=0.0|38=10000.0|40=1|21=1|20=0|151=2000|14=8000|31=99.3125|32=1000|6=99.5625|39=1|150=1|60=20160125-11:33:47.399|10=174|]
low information 2016/01/28 11:33:47:399686: FIXConnectionData: Sending data on connection {SIMULATOR_SESSION} [8=FIX.4.2|9=0244|35=8|49=OMSEMS_SESSION|56=SIMULATOR_SESSION|34=111|52=20160128-02:33:47|37=64229796|17=64231804|11=100_1453948427398|55=IBM|54=1|44=0.0|38=10000.0|40=1|21=1|20=0|151=2000|14=8000|31=99.3125|32=1000|6=99.5625|39=1|150=1|60=20160125-11:33:47.399|10=089|]
low information 2016/01/28 11:33:47:399690: FIXPump: Received data on connection {SIMULATOR_SESSION} [8=FIX.4.2|9=0171|35=D|49=SIMULATOR_SESSION|56=OMSEMS_SESSION|34=112|52=20160128-02:33:47|57=Simulator|40=2|21=2|38=5000|54=1|44=110.5|60=20160128-02:33:47:398|11=101_1453948427399|55=MSFT|10=128|]
low information 2016/01/28 11:33:47:399957: FIXConnectionData: Sending data on connection {SIMULATOR_SESSION} [8=FIX.4.2|9=0245|35=8|49=OMSEMS_SESSION|56=SIMULATOR_SESSION|34=112|52=20160128-02:33:47|37=64229796|17=64231804|11=101_1453948427399|55=MSFT|54=1|44=0.0|38=10000.0|40=1|21=1|20=0|151=2000|14=8000|31=99.3125|32=1000|6=99.5625|39=1|150=1|60=20160125-11:33:47.399|10=191|]
low information 2016/01/28 11:33:47:400003: FIXPump: Received data on connection {SIMULATOR_SESSION} [8=FIX.4.2|9=0171|35=D|49=SIMULATOR_SESSION|56=OMSEMS_SESSION|34=113|52=20160128-02:33:47|57=Simulator|40=2|21=2|38=5000|54=1|44=110.5|60=20160128-02:33:47:399|11=102_1453948427399|55=NSCP|10=125|]
low information 2016/01/28 11:33:47:400238: FIXPump: Received data on connection {SIMULATOR_SESSION} [8=FIX.4.2|9=0170|35=D|49=SIMULATOR_SESSION|56=OMSEMS_SESSION|34=114|52=20160128-02:33:47|57=Simulator|40=2|21=2|38=5000|54=1|44=110.5|60=20160128-02:33:47:399|11=103_1453948427399|55=EMC|10=031|]
low information 2016/01/28 11:33:47:400316: FIXConnectionData: Sending data on connection {SIMULATOR_SESSION} [8=FIX.4.2|9=0245|35=8|49=OMSEMS_SESSION|56=SIMULATOR_SESSION|34=113|52=20160128-02:33:47|37=64229796|17=64231804|11=102_1453948427399|55=NSCP|54=1|44=0.0|38=10000.0|40=1|21=1|20=0|151=2000|14=8000|31=99.3125|32=1000|6=99.5625|39=1|150=1|60=20160125-11:33:47.400|10=170|]
low information 2016/01/28 11:33:47:400444: FIXPump: Received data on connection {SIMULATOR_SESSION} [8=FIX.4.2|9=0171|35=D|49=SIMULATOR_SESSION|56=OMSEMS_SESSION|34=115|52=20160128-02:33:47|57=Simulator|40=2|21=2|38=5000|54=1|44=110.5|60=20160128-02:33:47:399|11=104_1453948427399|55=EBAY|10=110|]
low information 2016/01/28 11:33:47:400562: FIXConnectionData: Sending data on connection {SIMULATOR_SESSION} [8=FIX.4.2|9=0244|35=8|49=OMSEMS_SESSION|56=SIMULATOR_SESSION|34=114|52=20160128-02:33:47|37=64229796|17=64231804|11=103_1453948427399|55=EMC|54=1|44=0.0|38=10000.0|40=1|21=1|20=0|151=2000|14=8000|31=99.3125|32=1000|6=99.5625|39=1|150=1|60=20160125-11:33:47.400|10=076|]
low information 2016/01/28 11:33:47:400715: FIXConnectionData: Sending data on connection {SIMULATOR_SESSION} [8=FIX.4.2|9=0245|35=8|49=OMSEMS_SESSION|56=SIMULATOR_SESSION|34=115|52=20160128-02:33:47|37=64229796|17=64231804|11=104_1453948427399|55=EBAY|54=1|44=0.0|38=10000.0|40=1|21=1|20=0|151=2000|14=8000|31=99.3125|32=1000|6=99.5625|39=1|150=1|60=20160125-11:33:47.400|10=155|]
low information 2016/01/28 11:33:47:400724: FIXPump: Received data on connection {SIMULATOR_SESSION} [8=FIX.4.2|9=0171|35=D|49=SIMULATOR_SESSION|56=OMSEMS_SESSION|34=116|52=20160128-02:33:47|57=Simulator|40=2|21=2|38=5000|54=1|44=110.5|60=20160128-02:33:47:399|11=105_1453948427399|55=YHOO|10=142|]
low information 2016/01/28 11:33:47:400901: FIXPump: Received data on connection {SIMULATOR_SESSION} [8=FIX.4.2|9=0171|35=D|49=SIMULATOR_SESSION|56=OMSEMS_SESSION|34=117|52=20160128-02:33:47|57=Simulator|40=2|21=2|38=5000|54=1|44=110.5|60=20160128-02:33:47:400|11=106_1453948427400|55=CSCO|10=087|]
low information 2016/01/28 11:33:47:401000: FIXConnectionData: Sending data on connection {SIMULATOR_SESSION} [8=FIX.4.2|9=0245|35=8|49=OMSEMS_SESSION|56=SIMULATOR_SESSION|34=116|52=20160128-02:33:47|37=64229796|17=64231804|11=105_1453948427399|55=YHOO|54=1|44=0.0|38=10000.0|40=1|21=1|20=0|151=2000|14=8000|31=99.3125|32=1000|6=99.5625|39=1|150=1|60=20160125-11:33:47.400|10=187|]
low information 2016/01/28 11:33:47:401109: FIXPump: Received data on connection {SIMULATOR_SESSION} [8=FIX.4.2|9=0170|35=D|49=SIMULATOR_SESSION|56=OMSEMS_SESSION|34=118|52=20160128-02:33:47|57=Simulator|40=2|21=2|38=5000|54=1|44=110.5|60=20160128-02:33:47:400|11=107_1453948427400|55=AOL|10=012|]
low information 2016/01/28 11:33:47:401185: FIXConnectionData: Sending data on connection {SIMULATOR_SESSION} [8=FIX.4.2|9=0245|35=8|49=OMSEMS_SESSION|56=SIMULATOR_SESSION|34=117|52=20160128-02:33:47|37=64229796|17=64231804|11=106_1453948427400|55=CSCO|54=1|44=0.0|38=10000.0|40=1|21=1|20=0|151=2000|14=8000|31=99.3125|32=1000|6=99.5625|39=1|150=1|60=20160125-11:33:47.401|10=150|]
low information 2016/01/28 11:33:47:401342: FIXPump: Received data on connection {SIMULATOR_SESSION} [8=FIX.4.2|9=0169|35=D|49=SIMULATOR_SESSION|56=OMSEMS_SESSION|34=119|52=20160128-02:33:47|57=Simulator|40=2|21=2|38=5000|54=1|44=110.5|60=20160128-02:33:47:400|11=108_1453948427400|55=MO|10=214|]
low information 2016/01/28 11:33:47:402135: FIXConnectionData: Sending data on connection {SIMULATOR_SESSION} [8=FIX.4.2|9=0244|35=8|49=OMSEMS_SESSION|56=SIMULATOR_SESSION|34=118|52=20160128-02:33:47|37=64229796|17=64231804|11=107_1453948427400|55=AOL|54=1|44=0.0|38=10000.0|40=1|21=1|20=0|151=2000|14=8000|31=99.3125|32=1000|6=99.5625|39=1|150=1|60=20160125-11:33:47.401|10=075|]
low information 2016/01/28 11:33:47:402211: FIXConnectionData: Sending data on connection {SIMULATOR_SESSION} [8=FIX.4.2|9=0243|35=8|49=OMSEMS_SESSION|56=SIMULATOR_SESSION|34=119|52=20160128-02:33:47|37=64229796|17=64231804|11=108_1453948427400|55=MO|54=1|44=0.0|38=10000.0|40=1|21=1|20=0|151=2000|14=8000|31=99.3125|32=1000|6=99.5625|39=1|150=1|60=20160125-11:33:47.401|10=012|]
low information 2016/01/28 11:33:47:745963: FIXPump: Received data on connection {SIMULATOR_SESSION} [8=FIX.4.2|9=0168|35=D|49=SIMULATOR_SESSION|56=OMSEMS_SESSION|34=120|52=20160128-02:33:47|57=Simulator|40=2|21=2|38=5000|54=1|44=110.5|60=20160128-02:33:47:745|11=109_1453948427745|55=T|10=158|]
low information 2016/01/28 11:33:47:746081: FIXPump: Received data on connection {SIMULATOR_SESSION} [8=FIX.4.2|9=0171|35=D|49=SIMULATOR_SESSION|56=OMSEMS_SESSION|34=121|52=20160128-02:33:47|57=Simulator|40=2|21=2|38=5000|54=1|44=110.5|60=20160128-02:33:47:745|11=110_1453948427745|55=INTL|10=116|]
low information 2016/01/28 11:33:47:746270: FIXConnectionData: Sending data on connection {SIMULATOR_SESSION} [8=FIX.4.2|9=0242|35=8|49=OMSEMS_SESSION|56=SIMULATOR_SESSION|34=120|52=20160128-02:33:47|37=64229796|17=64231804|11=109_1453948427745|55=T|54=1|44=0.0|38=10000.0|40=1|21=1|20=0|151=2000|14=8000|31=99.3125|32=1000|6=99.5625|39=1|150=1|60=20160125-11:33:47.746|10=212|]
low information 2016/01/28 11:33:47:746413: FIXPump: Received data on connection {SIMULATOR_SESSION} [8=FIX.4.2|9=0171|35=D|49=SIMULATOR_SESSION|56=OMSEMS_SESSION|34=122|52=20160128-02:33:47|57=Simulator|40=2|21=2|38=5000|54=1|44=110.5|60=20160128-02:33:47:745|11=111_1453948427745|55=CELL|10=095|]
low information 2016/01/28 11:33:47:746489: FIXPump: Received data on connection {SIMULATOR_SESSION} [8=FIX.4.2|9=0171|35=D|49=SIMULATOR_SESSION|56=OMSEMS_SESSION|34=123|52=20160128-02:33:47|57=Simulator|40=2|21=2|38=5000|54=1|44=110.5|60=20160128-02:33:47:745|11=112_1453948427745|55=PPRT|10=135|]
low information 2016/01/28 11:33:47:746718: FIXConnectionData: Sending data on connection {SIMULATOR_SESSION} [8=FIX.4.2|9=0245|35=8|49=OMSEMS_SESSION|56=SIMULATOR_SESSION|34=121|52=20160128-02:33:47|37=64229796|17=64231804|11=110_1453948427745|55=INTL|54=1|44=0.0|38=10000.0|40=1|21=1|20=0|151=2000|14=8000|31=99.3125|32=1000|6=99.5625|39=1|150=1|60=20160125-11:33:47.746|10=179|]
low information 2016/01/28 11:33:47:746732: FIXPump: Received data on connection {SIMULATOR_SESSION} [8=FIX.4.2|9=0171|35=D|49=SIMULATOR_SESSION|56=OMSEMS_SESSION|34=124|52=20160128-02:33:47|57=Simulator|40=2|21=2|38=5000|54=1|44=110.5|60=20160128-02:33:47:746|11=113_1453948427746|55=VISX|10=143|]
low information 2016/01/28 11:33:47:746811: FIXConnectionData: Sending data on connection {SIMULATOR_SESSION} [8=FIX.4.2|9=0245|35=8|49=OMSEMS_SESSION|56=SIMULATOR_SESSION|34=122|52=20160128-02:33:47|37=64229796|17=64231804|11=111_1453948427745|55=CELL|54=1|44=0.0|38=10000.0|40=1|21=1|20=0|151=2000|14=8000|31=99.3125|32=1000|6=99.5625|39=1|150=1|60=20160125-11:33:47.746|10=158|]
low information 2016/01/28 11:33:47:746883: FIXConnectionData: Sending data on connection {SIMULATOR_SESSION} [8=FIX.4.2|9=0245|35=8|49=OMSEMS_SESSION|56=SIMULATOR_SESSION|34=123|52=20160128-02:33:47|37=64229796|17=64231804|11=112_1453948427745|55=PPRT|54=1|44=0.0|38=10000.0|40=1|21=1|20=0|151=2000|14=8000|31=99.3125|32=1000|6=99.5625|39=1|150=1|60=20160125-11:33:47.746|10=198|]
low information 2016/01/28 11:33:47:747119: FIXConnectionData: Sending data on connection {SIMULATOR_SESSION} [8=FIX.4.2|9=0245|35=8|49=OMSEMS_SESSION|56=SIMULATOR_SESSION|34=124|52=20160128-02:33:47|37=64229796|17=64231804|11=113_1453948427746|55=VISX|54=1|44=0.0|38=10000.0|40=1|21=1|20=0|151=2000|14=8000|31=99.3125|32=1000|6=99.5625|39=1|150=1|60=20160125-11:33:47.746|10=205|]
low information 2016/01/28 11:33:47:747246: FIXPump: Received data on connection {SIMULATOR_SESSION} [8=FIX.4.2|9=0169|35=D|49=SIMULATOR_SESSION|56=OMSEMS_SESSION|34=125|52=20160128-02:33:47|57=Simulator|40=2|21=2|38=5000|54=1|44=110.5|60=20160128-02:33:47:746|11=114_1453948427746|55=GE|10=218|]
low information 2016/01/28 11:33:47:747364: FIXPump: Received data on connection {SIMULATOR_SESSION} [8=FIX.4.2|9=0169|35=D|49=SIMULATOR_SESSION|56=OMSEMS_SESSION|34=126|52=20160128-02:33:47|57=Simulator|40=2|21=2|38=5000|54=1|44=110.5|60=20160128-02:33:47:746|11=115_1453948427746|55=GM|10=228|]
low information 2016/01/28 11:33:47:747617: FIXConnectionData: Sending data on connection {SIMULATOR_SESSION} [8=FIX.4.2|9=0243|35=8|49=OMSEMS_SESSION|56=SIMULATOR_SESSION|34=125|52=20160128-02:33:47|37=64229796|17=64231804|11=114_1453948427746|55=GE|54=1|44=0.0|38=10000.0|40=1|21=1|20=0|151=2000|14=8000|31=99.3125|32=1000|6=99.5625|39=1|150=1|60=20160125-11:33:47.747|10=016|]
low information 2016/01/28 11:33:47:747745: FIXPump: Received data on connection {SIMULATOR_SESSION} [8=FIX.4.2|9=0170|35=D|49=SIMULATOR_SESSION|56=OMSEMS_SESSION|34=127|52=20160128-02:33:47|57=Simulator|40=2|21=2|38=5000|54=1|44=110.5|60=20160128-02:33:47:746|11=116_1453948427746|55=GTE|10=042|]
low information 2016/01/28 11:33:47:747805: FIXConnectionData: Sending data on connection {SIMULATOR_SESSION} [8=FIX.4.2|9=0243|35=8|49=OMSEMS_SESSION|56=SIMULATOR_SESSION|34=126|52=20160128-02:33:47|37=64229796|17=64231804|11=115_1453948427746|55=GM|54=1|44=0.0|38=10000.0|40=1|21=1|20=0|151=2000|14=8000|31=99.3125|32=1000|6=99.5625|39=1|150=1|60=20160125-11:33:47.747|10=026|]
low information 2016/01/28 11:33:47:747856: FIXPump: Received data on connection {SIMULATOR_SESSION} [8=FIX.4.2|9=0169|35=D|49=SIMULATOR_SESSION|56=OMSEMS_SESSION|34=128|52=20160128-02:33:47|57=Simulator|40=2|21=2|38=5000|54=1|44=110.5|60=20160128-02:33:47:747|11=117_1453948427747|55=HP|10=238|]
low information 2016/01/28 11:33:47:748019: FIXPump: Received data on connection {SIMULATOR_SESSION} [8=FIX.4.2|9=0171|35=D|49=SIMULATOR_SESSION|56=OMSEMS_SESSION|34=129|52=20160128-02:33:47|57=Simulator|40=2|21=2|38=5000|54=1|44=110.5|60=20160128-02:33:47:747|11=118_1453948427747|55=DELL|10=114|]
low information 2016/01/28 11:33:47:748187: FIXPump: Received data on connection {SIMULATOR_SESSION} [8=FIX.4.2|9=0171|35=D|49=SIMULATOR_SESSION|56=OMSEMS_SESSION|34=130|52=20160128-02:33:47|57=Simulator|40=2|21=2|38=5000|54=1|44=110.5|60=20160128-02:33:47:747|11=119_1453948427747|55=SUNW|10=151|]
low information 2016/01/28 11:33:47:748413: FIXPump: Received data on connection {SIMULATOR_SESSION} [8=FIX.4.2|9=0170|35=D|49=SIMULATOR_SESSION|56=OMSEMS_SESSION|34=131|52=20160128-02:33:47|57=Simulator|40=2|21=2|38=5000|54=1|44=110.5|60=20160128-02:33:47:747|11=120_1453948427747|55=IBM|10=026|]
low information 2016/01/28 11:33:47:748446: FIXConnectionData: Sending data on connection {SIMULATOR_SESSION} [8=FIX.4.2|9=0244|35=8|49=OMSEMS_SESSION|56=SIMULATOR_SESSION|34=127|52=20160128-02:33:47|37=64229796|17=64231804|11=116_1453948427746|55=GTE|54=1|44=0.0|38=10000.0|40=1|21=1|20=0|151=2000|14=8000|31=99.3125|32=1000|6=99.5625|39=1|150=1|60=20160125-11:33:47.747|10=105|]
low information 2016/01/28 11:33:47:748714: FIXPump: Received data on connection {SIMULATOR_SESSION} [8=FIX.4.2|9=0171|35=D|49=SIMULATOR_SESSION|56=OMSEMS_SESSION|34=132|52=20160128-02:33:47|57=Simulator|40=2|21=2|38=5000|54=1|44=110.5|60=20160128-02:33:47:747|11=121_1453948427748|55=MSFT|10=128|]
low information 2016/01/28 11:33:47:748894: FIXPump: Received data on connection {SIMULATOR_SESSION} [8=FIX.4.2|9=0171|35=D|49=SIMULATOR_SESSION|56=OMSEMS_SESSION|34=133|52=20160128-02:33:47|57=Simulator|40=2|21=2|38=5000|54=1|44=110.5|60=20160128-02:33:47:748|11=122_1453948427748|55=NSCP|10=125|]
low information 2016/01/28 11:33:47:749119: FIXPump: Received data on connection {SIMULATOR_SESSION} [8=FIX.4.2|9=0170|35=D|49=SIMULATOR_SESSION|56=OMSEMS_SESSION|34=134|52=20160128-02:33:47|57=Simulator|40=2|21=2|38=5000|54=1|44=110.5|60=20160128-02:33:47:748|11=123_1453948427748|55=EMC|10=031|]
low information 2016/01/28 11:33:47:749130: FIXConnectionData: Sending data on connection {SIMULATOR_SESSION} [8=FIX.4.2|9=0243|35=8|49=OMSEMS_SESSION|56=SIMULATOR_SESSION|34=128|52=20160128-02:33:47|37=64229796|17=64231804|11=117_1453948427747|55=HP|54=1|44=0.0|38=10000.0|40=1|21=1|20=0|151=2000|14=8000|31=99.3125|32=1000|6=99.5625|39=1|150=1|60=20160125-11:33:47.748|10=036|]
low information 2016/01/28 11:33:47:749207: FIXConnectionData: Sending data on connection {SIMULATOR_SESSION} [8=FIX.4.2|9=0245|35=8|49=OMSEMS_SESSION|56=SIMULATOR_SESSION|34=129|52=20160128-02:33:47|37=64229796|17=64231804|11=118_1453948427747|55=DELL|54=1|44=0.0|38=10000.0|40=1|21=1|20=0|151=2000|14=8000|31=99.3125|32=1000|6=99.5625|39=1|150=1|60=20160125-11:33:47.748|10=177|]
low information 2016/01/28 11:33:47:749256: FIXConnectionData: Sending data on connection {SIMULATOR_SESSION} [8=FIX.4.2|9=0245|35=8|49=OMSEMS_SESSION|56=SIMULATOR_SESSION|34=130|52=20160128-02:33:47|37=64229796|17=64231804|11=119_1453948427747|55=SUNW|54=1|44=0.0|38=10000.0|40=1|21=1|20=0|151=2000|14=8000|31=99.3125|32=1000|6=99.5625|39=1|150=1|60=20160125-11:33:47.748|10=214|]
low information 2016/01/28 11:33:47:749310: FIXConnectionData: Sending data on connection {SIMULATOR_SESSION} [8=FIX.4.2|9=0244|35=8|49=OMSEMS_SESSION|56=SIMULATOR_SESSION|34=131|52=20160128-02:33:47|37=64229796|17=64231804|11=120_1453948427747|55=IBM|54=1|44=0.0|38=10000.0|40=1|21=1|20=0|151=2000|14=8000|31=99.3125|32=1000|6=99.5625|39=1|150=1|60=20160125-11:33:47.749|10=090|]
low information 2016/01/28 11:33:47:749391: FIXConnectionData: Sending data on connection {SIMULATOR_SESSION} [8=FIX.4.2|9=0245|35=8|49=OMSEMS_SESSION|56=SIMULATOR_SESSION|34=132|52=20160128-02:33:47|37=64229796|17=64231804|11=121_1453948427748|55=MSFT|54=1|44=0.0|38=10000.0|40=1|21=1|20=0|151=2000|14=8000|31=99.3125|32=1000|6=99.5625|39=1|150=1|60=20160125-11:33:47.749|10=192|]
low information 2016/01/28 11:33:47:749472: FIXConnectionData: Sending data on connection {SIMULATOR_SESSION} [8=FIX.4.2|9=0245|35=8|49=OMSEMS_SESSION|56=SIMULATOR_SESSION|34=133|52=20160128-02:33:47|37=64229796|17=64231804|11=122_1453948427748|55=NSCP|54=1|44=0.0|38=10000.0|40=1|21=1|20=0|151=2000|14=8000|31=99.3125|32=1000|6=99.5625|39=1|150=1|60=20160125-11:33:47.749|10=188|]
low information 2016/01/28 11:33:47:749555: FIXConnectionData: Sending data on connection {SIMULATOR_SESSION} [8=FIX.4.2|9=0244|35=8|49=OMSEMS_SESSION|56=SIMULATOR_SESSION|34=134|52=20160128-02:33:47|37=64229796|17=64231804|11=123_1453948427748|55=EMC|54=1|44=0.0|38=10000.0|40=1|21=1|20=0|151=2000|14=8000|31=99.3125|32=1000|6=99.5625|39=1|150=1|60=20160125-11:33:47.749|10=094|]
low information 2016/01/28 11:33:47:749645: FIXPump: Received data on connection {SIMULATOR_SESSION} [8=FIX.4.2|9=0171|35=D|49=SIMULATOR_SESSION|56=OMSEMS_SESSION|34=135|52=20160128-02:33:47|57=Simulator|40=2|21=2|38=5000|54=1|44=110.5|60=20160128-02:33:47:748|11=124_1453948427749|55=EBAY|10=111|]
low information 2016/01/28 11:33:47:750375: FIXConnectionData: Sending data on connection {SIMULATOR_SESSION} [8=FIX.4.2|9=0245|35=8|49=OMSEMS_SESSION|56=SIMULATOR_SESSION|34=135|52=20160128-02:33:47|37=64229796|17=64231804|11=124_1453948427749|55=EBAY|54=1|44=0.0|38=10000.0|40=1|21=1|20=0|151=2000|14=8000|31=99.3125|32=1000|6=99.5625|39=1|150=1|60=20160125-11:33:47.749|10=174|]
low information 2016/01/28 11:33:47:750672: FIXPump: Received data on connection {SIMULATOR_SESSION} [8=FIX.4.2|9=0171|35=D|49=SIMULATOR_SESSION|56=OMSEMS_SESSION|34=136|52=20160128-02:33:47|57=Simulator|40=2|21=2|38=5000|54=1|44=110.5|60=20160128-02:33:47:749|11=125_1453948427749|55=YHOO|10=144|]
low information 2016/01/28 11:33:47:750847: FIXPump: Received data on connection {SIMULATOR_SESSION} [8=FIX.4.2|9=0171|35=D|49=SIMULATOR_SESSION|56=OMSEMS_SESSION|34=137|52=20160128-02:33:47|57=Simulator|40=2|21=2|38=5000|54=1|44=110.5|60=20160128-02:33:47:750|11=126_1453948427750|55=CSCO|10=107|]
low information 2016/01/28 11:33:47:751095: FIXPump: Received data on connection {SIMULATOR_SESSION} [8=FIX.4.2|9=0170|35=D|49=SIMULATOR_SESSION|56=OMSEMS_SESSION|34=138|52=20160128-02:33:47|57=Simulator|40=2|21=2|38=5000|54=1|44=110.5|60=20160128-02:33:47:750|11=127_1453948427750|55=AOL|10=032|]
low information 2016/01/28 11:33:47:751315: FIXConnectionData: Sending data on connection {SIMULATOR_SESSION} [8=FIX.4.2|9=0245|35=8|49=OMSEMS_SESSION|56=SIMULATOR_SESSION|34=136|52=20160128-02:33:47|37=64229796|17=64231804|11=125_1453948427749|55=YHOO|54=1|44=0.0|38=10000.0|40=1|21=1|20=0|151=2000|14=8000|31=99.3125|32=1000|6=99.5625|39=1|150=1|60=20160125-11:33:47.750|10=198|]
low information 2016/01/28 11:33:47:751361: FIXConnectionData: Sending data on connection {SIMULATOR_SESSION} [8=FIX.4.2|9=0245|35=8|49=OMSEMS_SESSION|56=SIMULATOR_SESSION|34=137|52=20160128-02:33:47|37=64229796|17=64231804|11=126_1453948427750|55=CSCO|54=1|44=0.0|38=10000.0|40=1|21=1|20=0|151=2000|14=8000|31=99.3125|32=1000|6=99.5625|39=1|150=1|60=20160125-11:33:47.751|10=170|]
low information 2016/01/28 11:33:47:751582: FIXConnectionData: Sending data on connection {SIMULATOR_SESSION} [8=FIX.4.2|9=0244|35=8|49=OMSEMS_SESSION|56=SIMULATOR_SESSION|34=138|52=20160128-02:33:47|37=64229796|17=64231804|11=127_1453948427750|55=AOL|54=1|44=0.0|38=10000.0|40=1|21=1|20=0|151=2000|14=8000|31=99.3125|32=1000|6=99.5625|39=1|150=1|60=20160125-11:33:47.751|10=095|]
low information 2016/01/28 11:33:47:751898: FIXPump: Received data on connection {SIMULATOR_SESSION} [8=FIX.4.2|9=0169|35=D|49=SIMULATOR_SESSION|56=OMSEMS_SESSION|34=139|52=20160128-02:33:47|57=Simulator|40=2|21=2|38=5000|54=1|44=110.5|60=20160128-02:33:47:750|11=128_1453948427750|55=MO|10=234|]
low information 2016/01/28 11:33:47:751925: FIXPump: Received data on connection {SIMULATOR_SESSION} [8=FIX.4.2|9=0168|35=D|49=SIMULATOR_SESSION|56=OMSEMS_SESSION|34=140|52=20160128-02:33:47|57=Simulator|40=2|21=2|38=5000|54=1|44=110.5|60=20160128-02:33:47:750|11=129_1453948427750|55=T|10=154|]
low information 2016/01/28 11:33:47:751941: FIXPump: Received data on connection {SIMULATOR_SESSION} [8=FIX.4.2|9=0171|35=D|49=SIMULATOR_SESSION|56=OMSEMS_SESSION|34=141|52=20160128-02:33:47|57=Simulator|40=2|21=2|38=5000|54=1|44=110.5|60=20160128-02:33:47:750|11=130_1453948427750|55=INTL|10=112|]
low information 2016/01/28 11:33:47:751958: FIXPump: Received data on connection {SIMULATOR_SESSION} [8=FIX.4.2|9=0171|35=D|49=SIMULATOR_SESSION|56=OMSEMS_SESSION|34=142|52=20160128-02:33:47|57=Simulator|40=2|21=2|38=5000|54=1|44=110.5|60=20160128-02:33:47:751|11=131_1453948427751|55=CELL|10=093|]
low information 2016/01/28 11:33:47:752004: FIXPump: Received data on connection {SIMULATOR_SESSION} [8=FIX.4.2|9=0171|35=D|49=SIMULATOR_SESSION|56=OMSEMS_SESSION|34=143|52=20160128-02:33:47|57=Simulator|40=2|21=2|38=5000|54=1|44=110.5|60=20160128-02:33:47:751|11=132_1453948427751|55=PPRT|10=133|]
low information 2016/01/28 11:33:47:752181: FIXPump: Received data on connection {SIMULATOR_SESSION} [8=FIX.4.2|9=0171|35=D|49=SIMULATOR_SESSION|56=OMSEMS_SESSION|34=144|52=20160128-02:33:47|57=Simulator|40=2|21=2|38=5000|54=1|44=110.5|60=20160128-02:33:47:751|11=133_1453948427751|55=VISX|10=139|]
low information 2016/01/28 11:33:47:752184: FIXConnectionData: Sending data on connection {SIMULATOR_SESSION} [8=FIX.4.2|9=0243|35=8|49=OMSEMS_SESSION|56=SIMULATOR_SESSION|34=139|52=20160128-02:33:47|37=64229796|17=64231804|11=128_1453948427750|55=MO|54=1|44=0.0|38=10000.0|40=1|21=1|20=0|151=2000|14=8000|31=99.3125|32=1000|6=99.5625|39=1|150=1|60=20160125-11:33:47.752|10=033|]
low information 2016/01/28 11:33:47:752250: FIXConnectionData: Sending data on connection {SIMULATOR_SESSION} [8=FIX.4.2|9=0242|35=8|49=OMSEMS_SESSION|56=SIMULATOR_SESSION|34=140|52=20160128-02:33:47|37=64229796|17=64231804|11=129_1453948427750|55=T|54=1|44=0.0|38=10000.0|40=1|21=1|20=0|151=2000|14=8000|31=99.3125|32=1000|6=99.5625|39=1|150=1|60=20160125-11:33:47.752|10=209|]
low information 2016/01/28 11:33:47:752345: FIXConnectionData: Sending data on connection {SIMULATOR_SESSION} [8=FIX.4.2|9=0245|35=8|49=OMSEMS_SESSION|56=SIMULATOR_SESSION|34=141|52=20160128-02:33:47|37=64229796|17=64231804|11=130_1453948427750|55=INTL|54=1|44=0.0|38=10000.0|40=1|21=1|20=0|151=2000|14=8000|31=99.3125|32=1000|6=99.5625|39=1|150=1|60=20160125-11:33:47.752|10=176|]
low information 2016/01/28 11:33:47:752470: FIXConnectionData: Sending data on connection {SIMULATOR_SESSION} [8=FIX.4.2|9=0245|35=8|49=OMSEMS_SESSION|56=SIMULATOR_SESSION|34=142|52=20160128-02:33:47|37=64229796|17=64231804|11=131_1453948427751|55=CELL|54=1|44=0.0|38=10000.0|40=1|21=1|20=0|151=2000|14=8000|31=99.3125|32=1000|6=99.5625|39=1|150=1|60=20160125-11:33:47.752|10=156|]
low information 2016/01/28 11:33:47:752505: FIXPump: Received data on connection {SIMULATOR_SESSION} [8=FIX.4.2|9=0169|35=D|49=SIMULATOR_SESSION|56=OMSEMS_SESSION|34=145|52=20160128-02:33:47|57=Simulator|40=2|21=2|38=5000|54=1|44=110.5|60=20160128-02:33:47:751|11=134_1453948427751|55=GE|10=214|]
low information 2016/01/28 11:33:47:752558: FIXConnectionData: Sending data on connection {SIMULATOR_SESSION} [8=FIX.4.2|9=0245|35=8|49=OMSEMS_SESSION|56=SIMULATOR_SESSION|34=143|52=20160128-02:33:47|37=64229796|17=64231804|11=132_1453948427751|55=PPRT|54=1|44=0.0|38=10000.0|40=1|21=1|20=0|151=2000|14=8000|31=99.3125|32=1000|6=99.5625|39=1|150=1|60=20160125-11:33:47.752|10=196|]
low information 2016/01/28 11:33:47:752654: FIXConnectionData: Sending data on connection {SIMULATOR_SESSION} [8=FIX.4.2|9=0245|35=8|49=OMSEMS_SESSION|56=SIMULATOR_SESSION|34=144|52=20160128-02:33:47|37=64229796|17=64231804|11=133_1453948427751|55=VISX|54=1|44=0.0|38=10000.0|40=1|21=1|20=0|151=2000|14=8000|31=99.3125|32=1000|6=99.5625|39=1|150=1|60=20160125-11:33:47.752|10=202|]
low information 2016/01/28 11:33:47:752724: FIXConnectionData: Sending data on connection {SIMULATOR_SESSION} [8=FIX.4.2|9=0243|35=8|49=OMSEMS_SESSION|56=SIMULATOR_SESSION|34=145|52=20160128-02:33:47|37=64229796|17=64231804|11=134_1453948427751|55=GE|54=1|44=0.0|38=10000.0|40=1|21=1|20=0|151=2000|14=8000|31=99.3125|32=1000|6=99.5625|39=1|150=1|60=20160125-11:33:47.752|10=012|]
low information 2016/01/28 11:33:47:752750: FIXPump: Received data on connection {SIMULATOR_SESSION} [8=FIX.4.2|9=0169|35=D|49=SIMULATOR_SESSION|56=OMSEMS_SESSION|34=146|52=20160128-02:33:47|57=Simulator|40=2|21=2|38=5000|54=1|44=110.5|60=20160128-02:33:47:752|11=135_1453948427752|55=GM|10=226|]
low information 2016/01/28 11:33:47:752977: FIXConnectionData: Sending data on connection {SIMULATOR_SESSION} [8=FIX.4.2|9=0243|35=8|49=OMSEMS_SESSION|56=SIMULATOR_SESSION|34=146|52=20160128-02:33:47|37=64229796|17=64231804|11=135_1453948427752|55=GM|54=1|44=0.0|38=10000.0|40=1|21=1|20=0|151=2000|14=8000|31=99.3125|32=1000|6=99.5625|39=1|150=1|60=20160125-11:33:47.752|10=023|]
low information 2016/01/28 11:33:47:753069: FIXPump: Received data on connection {SIMULATOR_SESSION} [8=FIX.4.2|9=0170|35=D|49=SIMULATOR_SESSION|56=OMSEMS_SESSION|34=147|52=20160128-02:33:47|57=Simulator|40=2|21=2|38=5000|54=1|44=110.5|60=20160128-02:33:47:752|11=136_1453948427752|55=GTE|10=040|]
low information 2016/01/28 11:33:47:753291: FIXConnectionData: Sending data on connection {SIMULATOR_SESSION} [8=FIX.4.2|9=0244|35=8|49=OMSEMS_SESSION|56=SIMULATOR_SESSION|34=147|52=20160128-02:33:47|37=64229796|17=64231804|11=136_1453948427752|55=GTE|54=1|44=0.0|38=10000.0|40=1|21=1|20=0|151=2000|14=8000|31=99.3125|32=1000|6=99.5625|39=1|150=1|60=20160125-11:33:47.753|10=103|]
low information 2016/01/28 11:33:47:753800: FIXPump: Received data on connection {SIMULATOR_SESSION} [8=FIX.4.2|9=0169|35=D|49=SIMULATOR_SESSION|56=OMSEMS_SESSION|34=148|52=20160128-02:33:47|57=Simulator|40=2|21=2|38=5000|54=1|44=110.5|60=20160128-02:33:47:752|11=137_1453948427752|55=HP|10=234|]
low information 2016/01/28 11:33:47:753981: FIXPump: Received data on connection {SIMULATOR_SESSION} [8=FIX.4.2|9=0171|35=D|49=SIMULATOR_SESSION|56=OMSEMS_SESSION|34=149|52=20160128-02:33:47|57=Simulator|40=2|21=2|38=5000|54=1|44=110.5|60=20160128-02:33:47:753|11=138_1453948427753|55=DELL|10=112|]
low information 2016/01/28 11:33:47:754065: FIXConnectionData: Sending data on connection {SIMULATOR_SESSION} [8=FIX.4.2|9=0243|35=8|49=OMSEMS_SESSION|56=SIMULATOR_SESSION|34=148|52=20160128-02:33:47|37=64229796|17=64231804|11=137_1453948427752|55=HP|54=1|44=0.0|38=10000.0|40=1|21=1|20=0|151=2000|14=8000|31=99.3125|32=1000|6=99.5625|39=1|150=1|60=20160125-11:33:47.753|10=032|]
low information 2016/01/28 11:33:47:754124: FIXPump: Received data on connection {SIMULATOR_SESSION} [8=FIX.4.2|9=0171|35=D|49=SIMULATOR_SESSION|56=OMSEMS_SESSION|34=150|52=20160128-02:33:47|57=Simulator|40=2|21=2|38=5000|54=1|44=110.5|60=20160128-02:33:47:753|11=139_1453948427753|55=SUNW|10=149|]
low information 2016/01/28 11:33:47:754195: FIXConnectionData: Sending data on connection {SIMULATOR_SESSION} [8=FIX.4.2|9=0245|35=8|49=OMSEMS_SESSION|56=SIMULATOR_SESSION|34=149|52=20160128-02:33:47|37=64229796|17=64231804|11=138_1453948427753|55=DELL|54=1|44=0.0|38=10000.0|40=1|21=1|20=0|151=2000|14=8000|31=99.3125|32=1000|6=99.5625|39=1|150=1|60=20160125-11:33:47.754|10=175|]
low information 2016/01/28 11:33:47:754295: FIXPump: Received data on connection {SIMULATOR_SESSION} [8=FIX.4.2|9=0170|35=D|49=SIMULATOR_SESSION|56=OMSEMS_SESSION|34=151|52=20160128-02:33:47|57=Simulator|40=2|21=2|38=5000|54=1|44=110.5|60=20160128-02:33:47:753|11=140_1453948427753|55=IBM|10=024|]
low information 2016/01/28 11:33:47:754325: FIXConnectionData: Sending data on connection {SIMULATOR_SESSION} [8=FIX.4.2|9=0245|35=8|49=OMSEMS_SESSION|56=SIMULATOR_SESSION|34=150|52=20160128-02:33:47|37=64229796|17=64231804|11=139_1453948427753|55=SUNW|54=1|44=0.0|38=10000.0|40=1|21=1|20=0|151=2000|14=8000|31=99.3125|32=1000|6=99.5625|39=1|150=1|60=20160125-11:33:47.754|10=212|]
low information 2016/01/28 11:33:47:754492: FIXConnectionData: Sending data on connection {SIMULATOR_SESSION} [8=FIX.4.2|9=0244|35=8|49=OMSEMS_SESSION|56=SIMULATOR_SESSION|34=151|52=20160128-02:33:47|37=64229796|17=64231804|11=140_1453948427753|55=IBM|54=1|44=0.0|38=10000.0|40=1|21=1|20=0|151=2000|14=8000|31=99.3125|32=1000|6=99.5625|39=1|150=1|60=20160125-11:33:47.754|10=087|]
low information 2016/01/28 11:33:47:755280: FIXPump: Received data on connection {SIMULATOR_SESSION} [8=FIX.4.2|9=0171|35=D|49=SIMULATOR_SESSION|56=OMSEMS_SESSION|34=152|52=20160128-02:33:47|57=Simulator|40=2|21=2|38=5000|54=1|44=110.5|60=20160128-02:33:47:754|11=141_1453948427754|55=MSFT|10=127|]
low information 2016/01/28 11:33:47:755353: FIXPump: Received data on connection {SIMULATOR_SESSION} [8=FIX.4.2|9=0171|35=D|49=SIMULATOR_SESSION|56=OMSEMS_SESSION|34=153|52=20160128-02:33:47|57=Simulator|40=2|21=2|38=5000|54=1|44=110.5|60=20160128-02:33:47:754|11=142_1453948427754|55=NSCP|10=123|]
low information 2016/01/28 11:33:47:755638: FIXPump: Received data on connection {SIMULATOR_SESSION} [8=FIX.4.2|9=0170|35=D|49=SIMULATOR_SESSION|56=OMSEMS_SESSION|34=154|52=20160128-02:33:47|57=Simulator|40=2|21=2|38=5000|54=1|44=110.5|60=20160128-02:33:47:754|11=143_1453948427754|55=EMC|10=029|]
low information 2016/01/28 11:33:47:755687: FIXConnectionData: Sending data on connection {SIMULATOR_SESSION} [8=FIX.4.2|9=0245|35=8|49=OMSEMS_SESSION|56=SIMULATOR_SESSION|34=152|52=20160128-02:33:47|37=64229796|17=64231804|11=141_1453948427754|55=MSFT|54=1|44=0.0|38=10000.0|40=1|21=1|20=0|151=2000|14=8000|31=99.3125|32=1000|6=99.5625|39=1|150=1|60=20160125-11:33:47.755|10=190|]
low information 2016/01/28 11:33:47:755757: FIXConnectionData: Sending data on connection {SIMULATOR_SESSION} [8=FIX.4.2|9=0245|35=8|49=OMSEMS_SESSION|56=SIMULATOR_SESSION|34=153|52=20160128-02:33:47|37=64229796|17=64231804|11=142_1453948427754|55=NSCP|54=1|44=0.0|38=10000.0|40=1|21=1|20=0|151=2000|14=8000|31=99.3125|32=1000|6=99.5625|39=1|150=1|60=20160125-11:33:47.755|10=186|]
low information 2016/01/28 11:33:47:755830: FIXPump: Received data on connection {SIMULATOR_SESSION} [8=FIX.4.2|9=0171|35=D|49=SIMULATOR_SESSION|56=OMSEMS_SESSION|34=155|52=20160128-02:33:47|57=Simulator|40=2|21=2|38=5000|54=1|44=110.5|60=20160128-02:33:47:755|11=144_1453948427755|55=EBAY|10=110|]
low information 2016/01/28 11:33:47:755832: FIXConnectionData: Sending data on connection {SIMULATOR_SESSION} [8=FIX.4.2|9=0244|35=8|49=OMSEMS_SESSION|56=SIMULATOR_SESSION|34=154|52=20160128-02:33:47|37=64229796|17=64231804|11=143_1453948427754|55=EMC|54=1|44=0.0|38=10000.0|40=1|21=1|20=0|151=2000|14=8000|31=99.3125|32=1000|6=99.5625|39=1|150=1|60=20160125-11:33:47.755|10=092|]
low information 2016/01/28 11:33:47:756026: FIXConnectionData: Sending data on connection {SIMULATOR_SESSION} [8=FIX.4.2|9=0245|35=8|49=OMSEMS_SESSION|56=SIMULATOR_SESSION|34=155|52=20160128-02:33:47|37=64229796|17=64231804|11=144_1453948427755|55=EBAY|54=1|44=0.0|38=10000.0|40=1|21=1|20=0|151=2000|14=8000|31=99.3125|32=1000|6=99.5625|39=1|150=1|60=20160125-11:33:47.755|10=172|]
low information 2016/01/28 11:33:47:756137: FIXPump: Received data on connection {SIMULATOR_SESSION} [8=FIX.4.2|9=0171|35=D|49=SIMULATOR_SESSION|56=OMSEMS_SESSION|34=156|52=20160128-02:33:47|57=Simulator|40=2|21=2|38=5000|54=1|44=110.5|60=20160128-02:33:47:755|11=145_1453948427755|55=YHOO|10=142|]
low information 2016/01/28 11:33:47:756338: FIXConnectionData: Sending data on connection {SIMULATOR_SESSION} [8=FIX.4.2|9=0245|35=8|49=OMSEMS_SESSION|56=SIMULATOR_SESSION|34=156|52=20160128-02:33:47|37=64229796|17=64231804|11=145_1453948427755|55=YHOO|54=1|44=0.0|38=10000.0|40=1|21=1|20=0|151=2000|14=8000|31=99.3125|32=1000|6=99.5625|39=1|150=1|60=20160125-11:33:47.756|10=205|]
low information 2016/01/28 11:33:47:756379: FIXPump: Received data on connection {SIMULATOR_SESSION} [8=FIX.4.2|9=0171|35=D|49=SIMULATOR_SESSION|56=OMSEMS_SESSION|34=157|52=20160128-02:33:47|57=Simulator|40=2|21=2|38=5000|54=1|44=110.5|60=20160128-02:33:47:755|11=146_1453948427755|55=CSCO|10=121|]
low information 2016/01/28 11:33:47:756551: FIXConnectionData: Sending data on connection {SIMULATOR_SESSION} [8=FIX.4.2|9=0245|35=8|49=OMSEMS_SESSION|56=SIMULATOR_SESSION|34=157|52=20160128-02:33:47|37=64229796|17=64231804|11=146_1453948427755|55=CSCO|54=1|44=0.0|38=10000.0|40=1|21=1|20=0|151=2000|14=8000|31=99.3125|32=1000|6=99.5625|39=1|150=1|60=20160125-11:33:47.756|10=184|]
low information 2016/01/28 11:33:47:756635: FIXPump: Received data on connection {SIMULATOR_SESSION} [8=FIX.4.2|9=0170|35=D|49=SIMULATOR_SESSION|56=OMSEMS_SESSION|34=158|52=20160128-02:33:47|57=Simulator|40=2|21=2|38=5000|54=1|44=110.5|60=20160128-02:33:47:756|11=147_1453948427756|55=AOL|10=048|]
